{"contracts/DeFund.sol":{"DeFund":{"abi":[{"inputs":[{"internalType":"address","name":"_verifier","type":"address"}],"stateMutability":"nonpayable","type":"constructor"},{"inputs":[],"name":"ReentrancyGuardReentrantCall","type":"error"},{"anonymous":false,"inputs":[{"indexed":true,"internalType":"uint256","name":"campaignId","type":"uint256"}],"name":"CampaignCompleted","type":"event"},{"anonymous":false,"inputs":[{"indexed":true,"internalType":"uint256","name":"campaignId","type":"uint256"},{"indexed":true,"internalType":"address","name":"creator","type":"address"},{"indexed":false,"internalType":"string","name":"title","type":"string"},{"indexed":false,"internalType":"uint256","name":"fundingGoal","type":"uint256"},{"indexed":false,"internalType":"uint256","name":"milestoneCount","type":"uint256"}],"name":"CampaignCreated","type":"event"},{"anonymous":false,"inputs":[{"indexed":true,"internalType":"uint256","name":"campaignId","type":"uint256"}],"name":"CampaignFailed","type":"event"},{"anonymous":false,"inputs":[{"indexed":true,"internalType":"uint256","name":"campaignId","type":"uint256"},{"indexed":true,"internalType":"address","name":"backer","type":"address"},{"indexed":false,"internalType":"uint256","name":"amount","type":"uint256"},{"indexed":false,"internalType":"uint256","name":"totalRaised","type":"uint256"}],"name":"ContributionReceived","type":"event"},{"anonymous":false,"inputs":[{"indexed":true,"internalType":"uint256","name":"campaignId","type":"uint256"},{"indexed":true,"internalType":"uint256","name":"milestoneIndex","type":"uint256"},{"indexed":true,"internalType":"address","name":"creator","type":"address"},{"indexed":false,"internalType":"uint256","name":"amount","type":"uint256"}],"name":"FundsReleased","type":"event"},{"anonymous":false,"inputs":[{"indexed":true,"internalType":"uint256","name":"campaignId","type":"uint256"},{"indexed":true,"internalType":"uint256","name":"milestoneIndex","type":"uint256"},{"indexed":false,"internalType":"string","name":"proofUrl","type":"string"}],"name":"MilestoneSubmitted","type":"event"},{"anonymous":false,"inputs":[{"indexed":true,"internalType":"uint256","name":"campaignId","type":"uint256"},{"indexed":true,"internalType":"uint256","name":"milestoneIndex","type":"uint256"},{"indexed":false,"internalType":"bool","name":"passed","type":"bool"},{"indexed":false,"internalType":"uint8","name":"confidence","type":"uint8"}],"name":"MilestoneVerified","type":"event"},{"anonymous":false,"inputs":[{"indexed":true,"internalType":"uint256","name":"campaignId","type":"uint256"},{"indexed":true,"internalType":"address","name":"backer","type":"address"},{"indexed":false,"internalType":"uint256","name":"amount","type":"uint256"}],"name":"RefundClaimed","type":"event"},{"inputs":[{"internalType":"uint256","name":"","type":"uint256"},{"internalType":"uint256","name":"","type":"uint256"}],"name":"backers","outputs":[{"internalType":"address","name":"","type":"address"}],"stateMutability":"view","type":"function"},{"inputs":[],"name":"campaignCounter","outputs":[{"internalType":"uint256","name":"","type":"uint256"}],"stateMutability":"view","type":"function"},{"inputs":[{"internalType":"uint256","name":"","type":"uint256"}],"name":"campaigns","outputs":[{"internalType":"address","name":"creator","type":"address"},{"internalType":"string","name":"title","type":"string"},{"internalType":"string","name":"description","type":"string"},{"internalType":"uint256","name":"fundingGoal","type":"uint256"},{"internalType":"uint256","name":"raisedAmount","type":"uint256"},{"internalType":"uint256","name":"releasedAmount","type":"uint256"},{"internalType":"enum DeFund.CampaignState","name":"state","type":"uint8"},{"internalType":"uint256","name":"milestoneCount","type":"uint256"},{"internalType":"uint256","name":"currentMilestone","type":"uint256"},{"internalType":"uint256","name":"createdAt","type":"uint256"}],"stateMutability":"view","type":"function"},{"inputs":[{"internalType":"uint256","name":"_campaignId","type":"uint256"}],"name":"claimRefund","outputs":[],"stateMutability":"nonpayable","type":"function"},{"inputs":[{"internalType":"uint256","name":"_campaignId","type":"uint256"}],"name":"contribute","outputs":[],"stateMutability":"payable","type":"function"},{"inputs":[{"internalType":"uint256","name":"","type":"uint256"},{"internalType":"address","name":"","type":"address"}],"name":"contributions","outputs":[{"internalType":"uint256","name":"","type":"uint256"}],"stateMutability":"view","type":"function"},{"inputs":[{"internalType":"string","name":"_title","type":"string"},{"internalType":"string","name":"_description","type":"string"},{"internalType":"uint256","name":"_fundingGoal","type":"uint256"},{"internalType":"string[]","name":"_milestoneDescriptions","type":"string[]"},{"internalType":"uint256[]","name":"_milestoneAllocations","type":"uint256[]"}],"name":"createCampaign","outputs":[{"internalType":"uint256","name":"","type":"uint256"}],"stateMutability":"nonpayable","type":"function"},{"inputs":[{"internalType":"uint256","name":"_campaignId","type":"uint256"}],"name":"getBackerCount","outputs":[{"internalType":"uint256","name":"","type":"uint256"}],"stateMutability":"view","type":"function"},{"inputs":[{"internalType":"uint256","name":"_campaignId","type":"uint256"}],"name":"getCampaign","outputs":[{"components":[{"internalType":"address","name":"creator","type":"address"},{"internalType":"string","name":"title","type":"string"},{"internalType":"string","name":"description","type":"string"},{"internalType":"uint256","name":"fundingGoal","type":"uint256"},{"internalType":"uint256","name":"raisedAmount","type":"uint256"},{"internalType":"uint256","name":"releasedAmount","type":"uint256"},{"internalType":"enum DeFund.CampaignState","name":"state","type":"uint8"},{"internalType":"uint256","name":"milestoneCount","type":"uint256"},{"internalType":"uint256","name":"currentMilestone","type":"uint256"},{"internalType":"uint256","name":"createdAt","type":"uint256"}],"internalType":"struct DeFund.Campaign","name":"","type":"tuple"}],"stateMutability":"view","type":"function"},{"inputs":[],"name":"getContractBalance","outputs":[{"internalType":"uint256","name":"","type":"uint256"}],"stateMutability":"view","type":"function"},{"inputs":[{"internalType":"uint256","name":"_campaignId","type":"uint256"},{"internalType":"address","name":"_backer","type":"address"}],"name":"getContribution","outputs":[{"internalType":"uint256","name":"","type":"uint256"}],"stateMutability":"view","type":"function"},{"inputs":[{"internalType":"uint256","name":"_campaignId","type":"uint256"},{"internalType":"uint256","name":"_milestoneIndex","type":"uint256"}],"name":"getMilestone","outputs":[{"components":[{"internalType":"string","name":"description","type":"string"},{"internalType":"uint256","name":"fundsAllocated","type":"uint256"},{"internalType":"string","name":"proofUrl","type":"string"},{"internalType":"enum DeFund.MilestoneState","name":"state","type":"uint8"},{"internalType":"uint8","name":"confidence","type":"uint8"}],"internalType":"struct DeFund.Milestone","name":"","type":"tuple"}],"stateMutability":"view","type":"function"},{"inputs":[{"internalType":"uint256","name":"","type":"uint256"},{"internalType":"uint256","name":"","type":"uint256"}],"name":"milestones","outputs":[{"internalType":"string","name":"description","type":"string"},{"internalType":"uint256","name":"fundsAllocated","type":"uint256"},{"internalType":"string","name":"proofUrl","type":"string"},{"internalType":"enum DeFund.MilestoneState","name":"state","type":"uint8"},{"internalType":"uint8","name":"confidence","type":"uint8"}],"stateMutability":"view","type":"function"},{"inputs":[{"internalType":"address","name":"_newVerifier","type":"address"}],"name":"setVerifier","outputs":[],"stateMutability":"nonpayable","type":"function"},{"inputs":[{"internalType":"uint256","name":"_campaignId","type":"uint256"},{"internalType":"string","name":"_proofUrl","type":"string"}],"name":"submitMilestone","outputs":[],"stateMutability":"nonpayable","type":"function"},{"inputs":[],"name":"verifier","outputs":[{"internalType":"address","name":"","type":"address"}],"stateMutability":"view","type":"function"},{"inputs":[{"internalType":"uint256","name":"_campaignId","type":"uint256"},{"internalType":"uint256","name":"_milestoneIndex","type":"uint256"},{"internalType":"bool","name":"_passed","type":"bool"},{"internalType":"uint8","name":"_confidence","type":"uint8"}],"name":"verifyMilestone","outputs":[],"stateMutability":"nonpayable","type":"function"}],"evm":{"bytecode":{"linkReferences":{},"object":"60806040523480156200001157600080fd5b50604051620025923803806200259283398101604081905262000034916200005f565b6001600055600280546001600160a01b0319166001600160a01b039290921691909117905562000091565b6000602082840312156200007257600080fd5b81516001600160a01b03811681146200008a57600080fd5b9392505050565b6124f180620000a16000396000f3fe6080604052600436106100fe5760003560e01c80635b7baf64116100955780638ed9895c116100645780638ed9895c146102f3578063a5310ad714610320578063c1cbbca714610340578063e081dbf914610353578063fca604d71461037357600080fd5b80635b7baf64146102805780636f9fb98a146102a057806370dc46e6146102b35780638a18362c146102d357600080fd5b80633d891f59116100d15780633d891f59146101d9578063476a119b146102115780635437988d146102335780635598f8cc1461025357600080fd5b8063141961bc146101035780631685b8eb146101425780631c376c63146101705780632b7ac3f3146101a1575b600080fd5b34801561010f57600080fd5b5061012361011e366004611bd1565b610389565b6040516101399a99989796959493929190611c5a565b60405180910390f35b34801561014e57600080fd5b5061016261015d366004611d66565b6104f6565b604051908152602001610139565b34801561017c57600080fd5b5061019061018b366004611e36565b6109ff565b604051610139959493929190611e68565b3480156101ad57600080fd5b506002546101c1906001600160a01b031681565b6040516001600160a01b039091168152602001610139565b3480156101e557600080fd5b506101626101f4366004611ed2565b600560209081526000928352604080842090915290825290205481565b34801561021d57600080fd5b5061023161022c366004611efe565b610b4e565b005b34801561023f57600080fd5b5061023161024e366004611f4a565b610dcd565b34801561025f57600080fd5b5061027361026e366004611bd1565b610e42565b6040516101399190611f6c565b34801561028c57600080fd5b5061023161029b366004611bd1565b611035565b3480156102ac57600080fd5b5047610162565b3480156102bf57600080fd5b506101626102ce366004611bd1565b611299565b3480156102df57600080fd5b506101c16102ee366004611e36565b6112d1565b3480156102ff57600080fd5b5061031361030e366004611e36565b611309565b6040516101399190612022565b34801561032c57600080fd5b5061023161033b366004612092565b611526565b61023161034e366004611bd1565b611939565b34801561035f57600080fd5b5061016261036e366004611ed2565b611ad0565b34801561037f57600080fd5b5061016260015481565b600360205260009081526040902080546001820180546001600160a01b0390921692916103b5906120e7565b80601f01602080910402602001604051908101604052809291908181526020018280546103e1906120e7565b801561042e5780601f106104035761010080835404028352916020019161042e565b820191906000526020600020905b81548152906001019060200180831161041157829003601f168201915b505050505090806002018054610443906120e7565b80601f016020809104026020016040519081016040528092919081815260200182805461046f906120e7565b80156104bc5780601f10610491576101008083540402835291602001916104bc565b820191906000526020600020905b81548152906001019060200180831161049f57829003601f168201915b5050506003840154600485015460058601546006870154600788015460088901546009909901549798949793965091945060ff169290918a565b60008861053b5760405162461bcd60e51b815260206004820152600e60248201526d151a5d1b19481c995c5d5a5c995960921b60448201526064015b60405180910390fd5b6000861161057e5760405162461bcd60e51b815260206004820152601060248201526f0476f616c206d757374206265203e20360841b6044820152606401610532565b836105cb5760405162461bcd60e51b815260206004820152601960248201527f4e656564206174206c656173742031206d696c6573746f6e65000000000000006044820152606401610532565b83821461060e5760405162461bcd60e51b81526020600482015260116024820152704d69736d6174636865642061727261797360781b6044820152606401610532565b6000805b838110156106525784848281811061062c5761062c61211b565b905060200201358261063e9190612147565b91508061064a8161215a565b915050610612565b50806064146106a35760405162461bcd60e51b815260206004820152601b60248201527f416c6c6f636174696f6e73206d7573742073756d20746f2031303000000000006044820152606401610532565b60018054600091826106b48361215a565b919050559050604051806101400160405280336001600160a01b031681526020018d8d8080601f016020809104026020016040519081016040528093929190818152602001838380828437600092019190915250505090825250604080516020601f8e018190048102820181019092528c815291810191908d908d9081908401838280828437600092018290525093855250505060208083018c90526040808401839052606084018390526080840183905260a084018b905260c084018390524260e09094019390935284825260038152919020825181546001600160a01b0319166001600160a01b039091161781559082015160018201906107b790826121d8565b50604082015160028201906107cc90826121d8565b50606082015160038201556080820151600482015560a0820151600582015560c082015160068201805460ff1916600183600281111561080e5761080e611c30565b021790555060e0820151600782015561010082015160088201556101209091015160099091015560005b868110156109a457600060648787848181106108565761085661211b565b905060200201358b6108689190612298565b61087291906122af565b90506040518060a001604052808a8a858181106108915761089161211b565b90506020028101906108a391906122d1565b8080601f0160208091040260200160405190810160405280939291908181526020018383808284376000920182905250938552505050602080830185905260408051808301825283815281850152606084018390526080909301829052868252600481528282208683529052208151819061091e90826121d8565b50602082015160018201556040820151600282019061093d90826121d8565b5060608201518160030160006101000a81548160ff0219169083600381111561096857610968611c30565b0217905550608091909101516003909101805460ff9092166101000261ff0019909216919091179055508061099c8161215a565b915050610838565b50336001600160a01b0316817fdc26653af5b99b2da33e2ad69ee6600d9aeccc82b034501db4338309615ca2388e8e8c8c8c90506040516109e89493929190612341565b60405180910390a39b9a5050505050505050505050565b6004602090815260009283526040808420909152908252902080548190610a25906120e7565b80601f0160208091040260200160405190810160405280929190818152602001828054610a51906120e7565b8015610a9e5780601f10610a7357610100808354040283529160200191610a9e565b820191906000526020600020905b815481529060010190602001808311610a8157829003601f168201915b505050505090806001015490806002018054610ab9906120e7565b80601f0160208091040260200160405190810160405280929190818152602001828054610ae5906120e7565b8015610b325780601f10610b0757610100808354040283529160200191610b32565b820191906000526020600020905b815481529060010190602001808311610b1557829003601f168201915b5050506003909301549192505060ff8082169161010090041685565b826001548110610b705760405162461bcd60e51b815260040161053290612368565b600084815260036020526040902080546001600160a01b03163314610bd75760405162461bcd60e51b815260206004820152601760248201527f4f6e6c792063726561746f722063616e207375626d69740000000000000000006044820152606401610532565b6000600682015460ff166002811115610bf257610bf2611c30565b14610c0f5760405162461bcd60e51b81526004016105329061239f565b6000816004015411610c595760405162461bcd60e51b8152602060048201526013602482015272139bc8199d5b991cc81c985a5cd959081e595d606a1b6044820152606401610532565b600881015460078201548110610cb15760405162461bcd60e51b815260206004820152601860248201527f416c6c206d696c6573746f6e657320636f6d706c6574656400000000000000006044820152606401610532565b600086815260046020908152604080832084845290915281209060038083015460ff1690811115610ce457610ce4611c30565b14610d255760405162461bcd60e51b8152602060048201526011602482015270105b1c9958591e481cdd589b5a5d1d1959607a1b6044820152606401610532565b84610d675760405162461bcd60e51b8152602060048201526012602482015271141c9bdbd988155493081c995c5d5a5c995960721b6044820152606401610532565b60028101610d768688836123cc565b5060038101805460ff19166001179055604051829088907f556e3b296d5e8c8bab27684b52ae96905507befd2d188ce6f4453a6717dd9c0090610dbc908a908a9061248c565b60405180910390a350505050505050565b6002546001600160a01b03163314610e205760405162461bcd60e51b815260206004820152601660248201527513db9b1e481d995c9a599a595c8818d85b8818d85b1b60521b6044820152606401610532565b600280546001600160a01b0319166001600160a01b0392909216919091179055565b610e4a611b24565b816001548110610e6c5760405162461bcd60e51b815260040161053290612368565b6000838152600360209081526040918290208251610140810190935280546001600160a01b031683526001810180549192840191610ea9906120e7565b80601f0160208091040260200160405190810160405280929190818152602001828054610ed5906120e7565b8015610f225780601f10610ef757610100808354040283529160200191610f22565b820191906000526020600020905b815481529060010190602001808311610f0557829003601f168201915b50505050508152602001600282018054610f3b906120e7565b80601f0160208091040260200160405190810160405280929190818152602001828054610f67906120e7565b8015610fb45780601f10610f8957610100808354040283529160200191610fb4565b820191906000526020600020905b815481529060010190602001808311610f9757829003601f168201915b5050509183525050600382015460208201526004820154604082015260058201546060820152600682015460809091019060ff166002811115610ff957610ff9611c30565b600281111561100a5761100a611c30565b8152602001600782015481526020016008820154815260200160098201548152505091505b50919050565b8060015481106110575760405162461bcd60e51b815260040161053290612368565b61105f611afa565b60008281526003602052604090206002600682015460ff16600281111561108857611088611c30565b146110cb5760405162461bcd60e51b815260206004820152601360248201527210d85b5c185a59db881b9bdd0819985a5b1959606a1b6044820152606401610532565b60008381526005602090815260408083203384529091529020548061112a5760405162461bcd60e51b8152602060048201526015602482015274139bc818dbdb9d1c9a589d5d1a5bdb88199bdd5b99605a1b6044820152606401610532565b60008260050154836004015461114091906124a8565b60048401549091506000816111558486612298565b61115f91906122af565b9050600081116111a75760405162461bcd60e51b81526020600482015260136024820152724e6f20726566756e6420617661696c61626c6560681b6044820152606401610532565b60008781526005602090815260408083203380855292528083208390555183908381818185875af1925050503d80600081146111ff576040519150601f19603f3d011682016040523d82523d6000602084013e611204565b606091505b505090508061124e5760405162461bcd60e51b81526020600482015260166024820152751499599d5b99081d1c985b9cd9995c8819985a5b195960521b6044820152606401610532565b604051828152339089907ff3f402280ef0a7905e124aa621b65eaeb2725c343e8b36d398ed78c29daf285c9060200160405180910390a35050505050506112956001600055565b5050565b60008160015481106112bd5760405162461bcd60e51b815260040161053290612368565b505060009081526006602052604090205490565b600660205281600052604060002081815481106112ed57600080fd5b6000918252602090912001546001600160a01b03169150829050565b611311611b91565b8260015481106113335760405162461bcd60e51b815260040161053290612368565b60008481526003602052604090206007015483106113875760405162461bcd60e51b8152602060048201526011602482015270496e76616c6964206d696c6573746f6e6560781b6044820152606401610532565b600084815260046020908152604080832086845290915290819020815160a081019092528054829082906113ba906120e7565b80601f01602080910402602001604051908101604052809291908181526020018280546113e6906120e7565b80156114335780601f1061140857610100808354040283529160200191611433565b820191906000526020600020905b81548152906001019060200180831161141657829003601f168201915b5050505050815260200160018201548152602001600282018054611456906120e7565b80601f0160208091040260200160405190810160405280929190818152602001828054611482906120e7565b80156114cf5780601f106114a4576101008083540402835291602001916114cf565b820191906000526020600020905b8154815290600101906020018083116114b257829003601f168201915b505050918352505060038281015460209092019160ff16908111156114f6576114f6611c30565b600381111561150757611507611c30565b815260039190910154610100900460ff16602090910152949350505050565b6002546001600160a01b031633146115795760405162461bcd60e51b815260206004820152601660248201527513db9b1e481d995c9a599a595c8818d85b8818d85b1b60521b6044820152606401610532565b83600154811061159b5760405162461bcd60e51b815260040161053290612368565b6115a3611afa565b600085815260036020526040812090600682015460ff1660028111156115cb576115cb611c30565b146115e85760405162461bcd60e51b81526004016105329061239f565b8060080154851461162d5760405162461bcd60e51b815260206004820152600f60248201526e57726f6e67206d696c6573746f6e6560881b6044820152606401610532565b60008681526004602090815260408083208884529091529020600160038083015460ff169081111561166157611661611c30565b1461169e5760405162461bcd60e51b815260206004820152600d60248201526c139bdd081cdd589b5a5d1d1959609a1b6044820152606401610532565b60038101805461ff00191661010060ff871602179055841561189a5760038101805460ff191660021790556001810154600583015460048401546116e291906124a8565b81111561170057826005015483600401546116fd91906124a8565b90505b808360050160008282546117149190612147565b909155505060088301805490600061172b8361215a565b909155505082546040516000916001600160a01b03169083908381818185875af1925050503d806000811461177c576040519150601f19603f3d011682016040523d82523d6000602084013e611781565b606091505b50509050806117c45760405162461bcd60e51b815260206004820152600f60248201526e151c985b9cd9995c8819985a5b1959608a1b6044820152606401610532565b604080516001815260ff8816602082015289918b917f44c83b57568944e9bac4f1f4b626b117bb8009b2df87219dc10877872c141cb4910160405180910390a383546040518381526001600160a01b039091169089908b907fd5eb304362ffe48045a3ae2ed7e0d2cfed08eb62f44dc87c694d42606e8205d99060200160405180910390a483600701548460080154106118935760068401805460ff1916600117905560405189907fbdef6a2e3aa892961a2dab48272f72f2bc1c7121eb1c0ed7e4a58e081c1e4be090600090a25b5050611926565b6003818101805460ff1990811690921790556006830180549091166002179055604080516000815260ff86166020820152879189917f44c83b57568944e9bac4f1f4b626b117bb8009b2df87219dc10877872c141cb4910160405180910390a360405187907f7b1418b19a03b176f641639ee79855da661fa88a08377ecd32ad6d38152b953690600090a25b50506119326001600055565b5050505050565b80600154811061195b5760405162461bcd60e51b815260040161053290612368565b611963611afa565b600082815260036020526040812090600682015460ff16600281111561198b5761198b611c30565b146119a85760405162461bcd60e51b81526004016105329061239f565b600034116119ea5760405162461bcd60e51b815260206004820152600f60248201526e4d7573742073656e642066756e647360881b6044820152606401610532565b60008381526005602090815260408083203384529091528120549003611a395760008381526006602090815260408220805460018101825590835291200180546001600160a01b031916331790555b600083815260056020908152604080832033845290915281208054349290611a62908490612147565b9250508190555034816004016000828254611a7d9190612147565b90915550506004810154604080513481526020810192909252339185917fd2d33c5340520954ae03d46ba5f056dd7adb35260f86df538a709bed96d89afb910160405180910390a3506112956001600055565b60008281526005602090815260408083206001600160a01b03851684529091529020545b92915050565b600260005403611b1d57604051633ee5aeb560e01b815260040160405180910390fd5b6002600055565b60405180610140016040528060006001600160a01b03168152602001606081526020016060815260200160008152602001600081526020016000815260200160006002811115611b7657611b76611c30565b81526020016000815260200160008152602001600081525090565b6040518060a0016040528060608152602001600081526020016060815260200160006003811115611bc457611bc4611c30565b8152600060209091015290565b600060208284031215611be357600080fd5b5035919050565b6000815180845260005b81811015611c1057602081850181015186830182015201611bf4565b506000602082860101526020601f19601f83011685010191505092915050565b634e487b7160e01b600052602160045260246000fd5b60038110611c5657611c56611c30565b9052565b6001600160a01b038b16815261014060208201819052600090611c7f8382018d611bea565b90508281036040840152611c93818c611bea565b9150508860608301528760808301528660a0830152611cb560c0830187611c46565b8460e083015283610100830152826101208301529b9a5050505050505050505050565b60008083601f840112611cea57600080fd5b50813567ffffffffffffffff811115611d0257600080fd5b602083019150836020828501011115611d1a57600080fd5b9250929050565b60008083601f840112611d3357600080fd5b50813567ffffffffffffffff811115611d4b57600080fd5b6020830191508360208260051b8501011115611d1a57600080fd5b600080600080600080600080600060a08a8c031215611d8457600080fd5b893567ffffffffffffffff80821115611d9c57600080fd5b611da88d838e01611cd8565b909b50995060208c0135915080821115611dc157600080fd5b611dcd8d838e01611cd8565b909950975060408c0135965060608c0135915080821115611ded57600080fd5b611df98d838e01611d21565b909650945060808c0135915080821115611e1257600080fd5b50611e1f8c828d01611d21565b915080935050809150509295985092959850929598565b60008060408385031215611e4957600080fd5b50508035926020909101359150565b60048110611c5657611c56611c30565b60a081526000611e7b60a0830188611bea565b8660208401528281036040840152611e938187611bea565b915050611ea36060830185611e58565b60ff831660808301529695505050505050565b80356001600160a01b0381168114611ecd57600080fd5b919050565b60008060408385031215611ee557600080fd5b82359150611ef560208401611eb6565b90509250929050565b600080600060408486031215611f1357600080fd5b83359250602084013567ffffffffffffffff811115611f3157600080fd5b611f3d86828701611cd8565b9497909650939450505050565b600060208284031215611f5c57600080fd5b611f6582611eb6565b9392505050565b60208152611f866020820183516001600160a01b03169052565b60006020830151610140806040850152611fa4610160850183611bea565b91506040850151601f19858403016060860152611fc18382611bea565b92505060608501516080850152608085015160a085015260a085015160c085015260c0850151611ff460e0860182611c46565b5060e08501516101008581019190915285015161012080860191909152909401519390920192909252919050565b602081526000825160a0602084015261203e60c0840182611bea565b9050602084015160408401526040840151601f198483030160608501526120658282611bea565b915050606084015161207a6080850182611e58565b5060ff60808501511660a08401528091505092915050565b600080600080608085870312156120a857600080fd5b8435935060208501359250604085013580151581146120c657600080fd5b9150606085013560ff811681146120dc57600080fd5b939692955090935050565b600181811c908216806120fb57607f821691505b60208210810361102f57634e487b7160e01b600052602260045260246000fd5b634e487b7160e01b600052603260045260246000fd5b634e487b7160e01b600052601160045260246000fd5b80820180821115611af457611af4612131565b60006001820161216c5761216c612131565b5060010190565b634e487b7160e01b600052604160045260246000fd5b601f8211156121d357600081815260208120601f850160051c810160208610156121b05750805b601f850160051c820191505b818110156121cf578281556001016121bc565b5050505b505050565b815167ffffffffffffffff8111156121f2576121f2612173565b6122068161220084546120e7565b84612189565b602080601f83116001811461223b57600084156122235750858301515b600019600386901b1c1916600185901b1785556121cf565b600085815260208120601f198616915b8281101561226a5788860151825594840194600190910190840161224b565b50858210156122885787850151600019600388901b60f8161c191681555b5050505050600190811b01905550565b8082028115828204841417611af457611af4612131565b6000826122cc57634e487b7160e01b600052601260045260246000fd5b500490565b6000808335601e198436030181126122e857600080fd5b83018035915067ffffffffffffffff82111561230357600080fd5b602001915036819003821315611d1a57600080fd5b81835281816020850137506000828201602090810191909152601f909101601f19169091010190565b606081526000612355606083018688612318565b6020830194909452506040015292915050565b60208082526017908201527f43616d706169676e20646f6573206e6f74206578697374000000000000000000604082015260600190565b60208082526013908201527243616d706169676e206e6f742061637469766560681b604082015260600190565b67ffffffffffffffff8311156123e4576123e4612173565b6123f8836123f283546120e7565b83612189565b6000601f84116001811461242c57600085156124145750838201355b600019600387901b1c1916600186901b178355611932565b600083815260209020601f19861690835b8281101561245d578685013582556020948501946001909201910161243d565b508682101561247a5760001960f88860031b161c19848701351681555b505060018560011b0183555050505050565b6020815260006124a0602083018486612318565b949350505050565b81810381811115611af457611af461213156fea2646970667358221220e95d2e3f95821187e87d7c2defc71558fb14ad00a3d67da76427e921db017ef864736f6c63430008140033","opcodes":"PUSH1 0x80 PUSH1 0x40 MSTORE CALLVALUE DUP1 ISZERO PUSH3 0x11 JUMPI PUSH1 0x0 DUP1 REVERT JUMPDEST POP PUSH1 0x40 MLOAD PUSH3 0x2592 CODESIZE SUB DUP1 PUSH3 0x2592 DUP4 CODECOPY DUP2 ADD PUSH1 0x40 DUP2 SWAP1 MSTORE PUSH3 0x34 SWAP2 PUSH3 0x5F JUMP JUMPDEST PUSH1 0x1 PUSH1 0x0 SSTORE PUSH1 0x2 DUP1 SLOAD PUSH1 0x1 PUSH1 0x1 PUSH1 0xA0 SHL SUB NOT AND PUSH1 0x1 PUSH1 0x1 PUSH1 0xA0 SHL SUB SWAP3 SWAP1 SWAP3 AND SWAP2 SWAP1 SWAP2 OR SWAP1 SSTORE PUSH3 0x91 JUMP JUMPDEST PUSH1 0x0 PUSH1 0x20 DUP3 DUP5 SUB SLT ISZERO PUSH3 0x72 JUMPI PUSH1 0x0 DUP1 REVERT JUMPDEST DUP2 MLOAD PUSH1 0x1 PUSH1 0x1 PUSH1 0xA0 SHL SUB DUP2 AND DUP2 EQ PUSH3 0x8A JUMPI PUSH1 0x0 DUP1 REVERT JUMPDEST SWAP4 SWAP3 POP POP POP JUMP JUMPDEST PUSH2 0x24F1 DUP1 PUSH3 0xA1 PUSH1 0x0 CODECOPY PUSH1 0x0 RETURN INVALID PUSH1 0x80 PUSH1 0x40 MSTORE PUSH1 0x4 CALLDATASIZE LT PUSH2 0xFE JUMPI PUSH1 0x0 CALLDATALOAD PUSH1 0xE0 SHR DUP1 PUSH4 0x5B7BAF64 GT PUSH2 0x95 JUMPI DUP1 PUSH4 0x8ED9895C GT PUSH2 0x64 JUMPI DUP1 PUSH4 0x8ED9895C EQ PUSH2 0x2F3 JUMPI DUP1 PUSH4 0xA5310AD7 EQ PUSH2 0x320 JUMPI DUP1 PUSH4 0xC1CBBCA7 EQ PUSH2 0x340 JUMPI DUP1 PUSH4 0xE081DBF9 EQ PUSH2 0x353 JUMPI DUP1 PUSH4 0xFCA604D7 EQ PUSH2 0x373 JUMPI PUSH1 0x0 DUP1 REVERT JUMPDEST DUP1 PUSH4 0x5B7BAF64 EQ PUSH2 0x280 JUMPI DUP1 PUSH4 0x6F9FB98A EQ PUSH2 0x2A0 JUMPI DUP1 PUSH4 0x70DC46E6 EQ PUSH2 0x2B3 JUMPI DUP1 PUSH4 0x8A18362C EQ PUSH2 0x2D3 JUMPI PUSH1 0x0 DUP1 REVERT JUMPDEST DUP1 PUSH4 0x3D891F59 GT PUSH2 0xD1 JUMPI DUP1 PUSH4 0x3D891F59 EQ PUSH2 0x1D9 JUMPI DUP1 PUSH4 0x476A119B EQ PUSH2 0x211 JUMPI DUP1 PUSH4 0x5437988D EQ PUSH2 0x233 JUMPI DUP1 PUSH4 0x5598F8CC EQ PUSH2 0x253 JUMPI PUSH1 0x0 DUP1 REVERT JUMPDEST DUP1 PUSH4 0x141961BC EQ PUSH2 0x103 JUMPI DUP1 PUSH4 0x1685B8EB EQ PUSH2 0x142 JUMPI DUP1 PUSH4 0x1C376C63 EQ PUSH2 0x170 JUMPI DUP1 PUSH4 0x2B7AC3F3 EQ PUSH2 0x1A1 JUMPI JUMPDEST PUSH1 0x0 DUP1 REVERT JUMPDEST CALLVALUE DUP1 ISZERO PUSH2 0x10F JUMPI PUSH1 0x0 DUP1 REVERT JUMPDEST POP PUSH2 0x123 PUSH2 0x11E CALLDATASIZE PUSH1 0x4 PUSH2 0x1BD1 JUMP JUMPDEST PUSH2 0x389 JUMP JUMPDEST PUSH1 0x40 MLOAD PUSH2 0x139 SWAP11 SWAP10 SWAP9 SWAP8 SWAP7 SWAP6 SWAP5 SWAP4 SWAP3 SWAP2 SWAP1 PUSH2 0x1C5A JUMP JUMPDEST PUSH1 0x40 MLOAD DUP1 SWAP2 SUB SWAP1 RETURN JUMPDEST CALLVALUE DUP1 ISZERO PUSH2 0x14E JUMPI PUSH1 0x0 DUP1 REVERT JUMPDEST POP PUSH2 0x162 PUSH2 0x15D CALLDATASIZE PUSH1 0x4 PUSH2 0x1D66 JUMP JUMPDEST PUSH2 0x4F6 JUMP JUMPDEST PUSH1 0x40 MLOAD SWAP1 DUP2 MSTORE PUSH1 0x20 ADD PUSH2 0x139 JUMP JUMPDEST CALLVALUE DUP1 ISZERO PUSH2 0x17C JUMPI PUSH1 0x0 DUP1 REVERT JUMPDEST POP PUSH2 0x190 PUSH2 0x18B CALLDATASIZE PUSH1 0x4 PUSH2 0x1E36 JUMP JUMPDEST PUSH2 0x9FF JUMP JUMPDEST PUSH1 0x40 MLOAD PUSH2 0x139 SWAP6 SWAP5 SWAP4 SWAP3 SWAP2 SWAP1 PUSH2 0x1E68 JUMP JUMPDEST CALLVALUE DUP1 ISZERO PUSH2 0x1AD JUMPI PUSH1 0x0 DUP1 REVERT JUMPDEST POP PUSH1 0x2 SLOAD PUSH2 0x1C1 SWAP1 PUSH1 0x1 PUSH1 0x1 PUSH1 0xA0 SHL SUB AND DUP2 JUMP JUMPDEST PUSH1 0x40 MLOAD PUSH1 0x1 PUSH1 0x1 PUSH1 0xA0 SHL SUB SWAP1 SWAP2 AND DUP2 MSTORE PUSH1 0x20 ADD PUSH2 0x139 JUMP JUMPDEST CALLVALUE DUP1 ISZERO PUSH2 0x1E5 JUMPI PUSH1 0x0 DUP1 REVERT JUMPDEST POP PUSH2 0x162 PUSH2 0x1F4 CALLDATASIZE PUSH1 0x4 PUSH2 0x1ED2 JUMP JUMPDEST PUSH1 0x5 PUSH1 0x20 SWAP1 DUP2 MSTORE PUSH1 0x0 SWAP3 DUP4 MSTORE PUSH1 0x40 DUP1 DUP5 KECCAK256 SWAP1 SWAP2 MSTORE SWAP1 DUP3 MSTORE SWAP1 KECCAK256 SLOAD DUP2 JUMP JUMPDEST CALLVALUE DUP1 ISZERO PUSH2 0x21D JUMPI PUSH1 0x0 DUP1 REVERT JUMPDEST POP PUSH2 0x231 PUSH2 0x22C CALLDATASIZE PUSH1 0x4 PUSH2 0x1EFE JUMP JUMPDEST PUSH2 0xB4E JUMP JUMPDEST STOP JUMPDEST CALLVALUE DUP1 ISZERO PUSH2 0x23F JUMPI PUSH1 0x0 DUP1 REVERT JUMPDEST POP PUSH2 0x231 PUSH2 0x24E CALLDATASIZE PUSH1 0x4 PUSH2 0x1F4A JUMP JUMPDEST PUSH2 0xDCD JUMP JUMPDEST CALLVALUE DUP1 ISZERO PUSH2 0x25F JUMPI PUSH1 0x0 DUP1 REVERT JUMPDEST POP PUSH2 0x273 PUSH2 0x26E CALLDATASIZE PUSH1 0x4 PUSH2 0x1BD1 JUMP JUMPDEST PUSH2 0xE42 JUMP JUMPDEST PUSH1 0x40 MLOAD PUSH2 0x139 SWAP2 SWAP1 PUSH2 0x1F6C JUMP JUMPDEST CALLVALUE DUP1 ISZERO PUSH2 0x28C JUMPI PUSH1 0x0 DUP1 REVERT JUMPDEST POP PUSH2 0x231 PUSH2 0x29B CALLDATASIZE PUSH1 0x4 PUSH2 0x1BD1 JUMP JUMPDEST PUSH2 0x1035 JUMP JUMPDEST CALLVALUE DUP1 ISZERO PUSH2 0x2AC JUMPI PUSH1 0x0 DUP1 REVERT JUMPDEST POP SELFBALANCE PUSH2 0x162 JUMP JUMPDEST CALLVALUE DUP1 ISZERO PUSH2 0x2BF JUMPI PUSH1 0x0 DUP1 REVERT JUMPDEST POP PUSH2 0x162 PUSH2 0x2CE CALLDATASIZE PUSH1 0x4 PUSH2 0x1BD1 JUMP JUMPDEST PUSH2 0x1299 JUMP JUMPDEST CALLVALUE DUP1 ISZERO PUSH2 0x2DF JUMPI PUSH1 0x0 DUP1 REVERT JUMPDEST POP PUSH2 0x1C1 PUSH2 0x2EE CALLDATASIZE PUSH1 0x4 PUSH2 0x1E36 JUMP JUMPDEST PUSH2 0x12D1 JUMP JUMPDEST CALLVALUE DUP1 ISZERO PUSH2 0x2FF JUMPI PUSH1 0x0 DUP1 REVERT JUMPDEST POP PUSH2 0x313 PUSH2 0x30E CALLDATASIZE PUSH1 0x4 PUSH2 0x1E36 JUMP JUMPDEST PUSH2 0x1309 JUMP JUMPDEST PUSH1 0x40 MLOAD PUSH2 0x139 SWAP2 SWAP1 PUSH2 0x2022 JUMP JUMPDEST CALLVALUE DUP1 ISZERO PUSH2 0x32C JUMPI PUSH1 0x0 DUP1 REVERT JUMPDEST POP PUSH2 0x231 PUSH2 0x33B CALLDATASIZE PUSH1 0x4 PUSH2 0x2092 JUMP JUMPDEST PUSH2 0x1526 JUMP JUMPDEST PUSH2 0x231 PUSH2 0x34E CALLDATASIZE PUSH1 0x4 PUSH2 0x1BD1 JUMP JUMPDEST PUSH2 0x1939 JUMP JUMPDEST CALLVALUE DUP1 ISZERO PUSH2 0x35F JUMPI PUSH1 0x0 DUP1 REVERT JUMPDEST POP PUSH2 0x162 PUSH2 0x36E CALLDATASIZE PUSH1 0x4 PUSH2 0x1ED2 JUMP JUMPDEST PUSH2 0x1AD0 JUMP JUMPDEST CALLVALUE DUP1 ISZERO PUSH2 0x37F JUMPI PUSH1 0x0 DUP1 REVERT JUMPDEST POP PUSH2 0x162 PUSH1 0x1 SLOAD DUP2 JUMP JUMPDEST PUSH1 0x3 PUSH1 0x20 MSTORE PUSH1 0x0 SWAP1 DUP2 MSTORE PUSH1 0x40 SWAP1 KECCAK256 DUP1 SLOAD PUSH1 0x1 DUP3 ADD DUP1 SLOAD PUSH1 0x1 PUSH1 0x1 PUSH1 0xA0 SHL SUB SWAP1 SWAP3 AND SWAP3 SWAP2 PUSH2 0x3B5 SWAP1 PUSH2 0x20E7 JUMP JUMPDEST DUP1 PUSH1 0x1F ADD PUSH1 0x20 DUP1 SWAP2 DIV MUL PUSH1 0x20 ADD PUSH1 0x40 MLOAD SWAP1 DUP2 ADD PUSH1 0x40 MSTORE DUP1 SWAP3 SWAP2 SWAP1 DUP2 DUP2 MSTORE PUSH1 0x20 ADD DUP3 DUP1 SLOAD PUSH2 0x3E1 SWAP1 PUSH2 0x20E7 JUMP JUMPDEST DUP1 ISZERO PUSH2 0x42E JUMPI DUP1 PUSH1 0x1F LT PUSH2 0x403 JUMPI PUSH2 0x100 DUP1 DUP4 SLOAD DIV MUL DUP4 MSTORE SWAP2 PUSH1 0x20 ADD SWAP2 PUSH2 0x42E JUMP JUMPDEST DUP3 ADD SWAP2 SWAP1 PUSH1 0x0 MSTORE PUSH1 0x20 PUSH1 0x0 KECCAK256 SWAP1 JUMPDEST DUP2 SLOAD DUP2 MSTORE SWAP1 PUSH1 0x1 ADD SWAP1 PUSH1 0x20 ADD DUP1 DUP4 GT PUSH2 0x411 JUMPI DUP3 SWAP1 SUB PUSH1 0x1F AND DUP3 ADD SWAP2 JUMPDEST POP POP POP POP POP SWAP1 DUP1 PUSH1 0x2 ADD DUP1 SLOAD PUSH2 0x443 SWAP1 PUSH2 0x20E7 JUMP JUMPDEST DUP1 PUSH1 0x1F ADD PUSH1 0x20 DUP1 SWAP2 DIV MUL PUSH1 0x20 ADD PUSH1 0x40 MLOAD SWAP1 DUP2 ADD PUSH1 0x40 MSTORE DUP1 SWAP3 SWAP2 SWAP1 DUP2 DUP2 MSTORE PUSH1 0x20 ADD DUP3 DUP1 SLOAD PUSH2 0x46F SWAP1 PUSH2 0x20E7 JUMP JUMPDEST DUP1 ISZERO PUSH2 0x4BC JUMPI DUP1 PUSH1 0x1F LT PUSH2 0x491 JUMPI PUSH2 0x100 DUP1 DUP4 SLOAD DIV MUL DUP4 MSTORE SWAP2 PUSH1 0x20 ADD SWAP2 PUSH2 0x4BC JUMP JUMPDEST DUP3 ADD SWAP2 SWAP1 PUSH1 0x0 MSTORE PUSH1 0x20 PUSH1 0x0 KECCAK256 SWAP1 JUMPDEST DUP2 SLOAD DUP2 MSTORE SWAP1 PUSH1 0x1 ADD SWAP1 PUSH1 0x20 ADD DUP1 DUP4 GT PUSH2 0x49F JUMPI DUP3 SWAP1 SUB PUSH1 0x1F AND DUP3 ADD SWAP2 JUMPDEST POP POP POP PUSH1 0x3 DUP5 ADD SLOAD PUSH1 0x4 DUP6 ADD SLOAD PUSH1 0x5 DUP7 ADD SLOAD PUSH1 0x6 DUP8 ADD SLOAD PUSH1 0x7 DUP9 ADD SLOAD PUSH1 0x8 DUP10 ADD SLOAD PUSH1 0x9 SWAP1 SWAP10 ADD SLOAD SWAP8 SWAP9 SWAP5 SWAP8 SWAP4 SWAP7 POP SWAP2 SWAP5 POP PUSH1 0xFF AND SWAP3 SWAP1 SWAP2 DUP11 JUMP JUMPDEST PUSH1 0x0 DUP9 PUSH2 0x53B JUMPI PUSH1 0x40 MLOAD PUSH3 0x461BCD PUSH1 0xE5 SHL DUP2 MSTORE PUSH1 0x20 PUSH1 0x4 DUP3 ADD MSTORE PUSH1 0xE PUSH1 0x24 DUP3 ADD MSTORE PUSH14 0x151A5D1B19481C995C5D5A5C9959 PUSH1 0x92 SHL PUSH1 0x44 DUP3 ADD MSTORE PUSH1 0x64 ADD JUMPDEST PUSH1 0x40 MLOAD DUP1 SWAP2 SUB SWAP1 REVERT JUMPDEST PUSH1 0x0 DUP7 GT PUSH2 0x57E JUMPI PUSH1 0x40 MLOAD PUSH3 0x461BCD PUSH1 0xE5 SHL DUP2 MSTORE PUSH1 0x20 PUSH1 0x4 DUP3 ADD MSTORE PUSH1 0x10 PUSH1 0x24 DUP3 ADD MSTORE PUSH16 0x476F616C206D757374206265203E203 PUSH1 0x84 SHL PUSH1 0x44 DUP3 ADD MSTORE PUSH1 0x64 ADD PUSH2 0x532 JUMP JUMPDEST DUP4 PUSH2 0x5CB JUMPI PUSH1 0x40 MLOAD PUSH3 0x461BCD PUSH1 0xE5 SHL DUP2 MSTORE PUSH1 0x20 PUSH1 0x4 DUP3 ADD MSTORE PUSH1 0x19 PUSH1 0x24 DUP3 ADD MSTORE PUSH32 0x4E656564206174206C656173742031206D696C6573746F6E6500000000000000 PUSH1 0x44 DUP3 ADD MSTORE PUSH1 0x64 ADD PUSH2 0x532 JUMP JUMPDEST DUP4 DUP3 EQ PUSH2 0x60E JUMPI PUSH1 0x40 MLOAD PUSH3 0x461BCD PUSH1 0xE5 SHL DUP2 MSTORE PUSH1 0x20 PUSH1 0x4 DUP3 ADD MSTORE PUSH1 0x11 PUSH1 0x24 DUP3 ADD MSTORE PUSH17 0x4D69736D61746368656420617272617973 PUSH1 0x78 SHL PUSH1 0x44 DUP3 ADD MSTORE PUSH1 0x64 ADD PUSH2 0x532 JUMP JUMPDEST PUSH1 0x0 DUP1 JUMPDEST DUP4 DUP2 LT ISZERO PUSH2 0x652 JUMPI DUP5 DUP5 DUP3 DUP2 DUP2 LT PUSH2 0x62C JUMPI PUSH2 0x62C PUSH2 0x211B JUMP JUMPDEST SWAP1 POP PUSH1 0x20 MUL ADD CALLDATALOAD DUP3 PUSH2 0x63E SWAP2 SWAP1 PUSH2 0x2147 JUMP JUMPDEST SWAP2 POP DUP1 PUSH2 0x64A DUP2 PUSH2 0x215A JUMP JUMPDEST SWAP2 POP POP PUSH2 0x612 JUMP JUMPDEST POP DUP1 PUSH1 0x64 EQ PUSH2 0x6A3 JUMPI PUSH1 0x40 MLOAD PUSH3 0x461BCD PUSH1 0xE5 SHL DUP2 MSTORE PUSH1 0x20 PUSH1 0x4 DUP3 ADD MSTORE PUSH1 0x1B PUSH1 0x24 DUP3 ADD MSTORE PUSH32 0x416C6C6F636174696F6E73206D7573742073756D20746F203130300000000000 PUSH1 0x44 DUP3 ADD MSTORE PUSH1 0x64 ADD PUSH2 0x532 JUMP JUMPDEST PUSH1 0x1 DUP1 SLOAD PUSH1 0x0 SWAP2 DUP3 PUSH2 0x6B4 DUP4 PUSH2 0x215A JUMP JUMPDEST SWAP2 SWAP1 POP SSTORE SWAP1 POP PUSH1 0x40 MLOAD DUP1 PUSH2 0x140 ADD PUSH1 0x40 MSTORE DUP1 CALLER PUSH1 0x1 PUSH1 0x1 PUSH1 0xA0 SHL SUB AND DUP2 MSTORE PUSH1 0x20 ADD DUP14 DUP14 DUP1 DUP1 PUSH1 0x1F ADD PUSH1 0x20 DUP1 SWAP2 DIV MUL PUSH1 0x20 ADD PUSH1 0x40 MLOAD SWAP1 DUP2 ADD PUSH1 0x40 MSTORE DUP1 SWAP4 SWAP3 SWAP2 SWAP1 DUP2 DUP2 MSTORE PUSH1 0x20 ADD DUP4 DUP4 DUP1 DUP3 DUP5 CALLDATACOPY PUSH1 0x0 SWAP3 ADD SWAP2 SWAP1 SWAP2 MSTORE POP POP POP SWAP1 DUP3 MSTORE POP PUSH1 0x40 DUP1 MLOAD PUSH1 0x20 PUSH1 0x1F DUP15 ADD DUP2 SWAP1 DIV DUP2 MUL DUP3 ADD DUP2 ADD SWAP1 SWAP3 MSTORE DUP13 DUP2 MSTORE SWAP2 DUP2 ADD SWAP2 SWAP1 DUP14 SWAP1 DUP14 SWAP1 DUP2 SWAP1 DUP5 ADD DUP4 DUP3 DUP1 DUP3 DUP5 CALLDATACOPY PUSH1 0x0 SWAP3 ADD DUP3 SWAP1 MSTORE POP SWAP4 DUP6 MSTORE POP POP POP PUSH1 0x20 DUP1 DUP4 ADD DUP13 SWAP1 MSTORE PUSH1 0x40 DUP1 DUP5 ADD DUP4 SWAP1 MSTORE PUSH1 0x60 DUP5 ADD DUP4 SWAP1 MSTORE PUSH1 0x80 DUP5 ADD DUP4 SWAP1 MSTORE PUSH1 0xA0 DUP5 ADD DUP12 SWAP1 MSTORE PUSH1 0xC0 DUP5 ADD DUP4 SWAP1 MSTORE TIMESTAMP PUSH1 0xE0 SWAP1 SWAP5 ADD SWAP4 SWAP1 SWAP4 MSTORE DUP5 DUP3 MSTORE PUSH1 0x3 DUP2 MSTORE SWAP2 SWAP1 KECCAK256 DUP3 MLOAD DUP2 SLOAD PUSH1 0x1 PUSH1 0x1 PUSH1 0xA0 SHL SUB NOT AND PUSH1 0x1 PUSH1 0x1 PUSH1 0xA0 SHL SUB SWAP1 SWAP2 AND OR DUP2 SSTORE SWAP1 DUP3 ADD MLOAD PUSH1 0x1 DUP3 ADD SWAP1 PUSH2 0x7B7 SWAP1 DUP3 PUSH2 0x21D8 JUMP JUMPDEST POP PUSH1 0x40 DUP3 ADD MLOAD PUSH1 0x2 DUP3 ADD SWAP1 PUSH2 0x7CC SWAP1 DUP3 PUSH2 0x21D8 JUMP JUMPDEST POP PUSH1 0x60 DUP3 ADD MLOAD PUSH1 0x3 DUP3 ADD SSTORE PUSH1 0x80 DUP3 ADD MLOAD PUSH1 0x4 DUP3 ADD SSTORE PUSH1 0xA0 DUP3 ADD MLOAD PUSH1 0x5 DUP3 ADD SSTORE PUSH1 0xC0 DUP3 ADD MLOAD PUSH1 0x6 DUP3 ADD DUP1 SLOAD PUSH1 0xFF NOT AND PUSH1 0x1 DUP4 PUSH1 0x2 DUP2 GT ISZERO PUSH2 0x80E JUMPI PUSH2 0x80E PUSH2 0x1C30 JUMP JUMPDEST MUL OR SWAP1 SSTORE POP PUSH1 0xE0 DUP3 ADD MLOAD PUSH1 0x7 DUP3 ADD SSTORE PUSH2 0x100 DUP3 ADD MLOAD PUSH1 0x8 DUP3 ADD SSTORE PUSH2 0x120 SWAP1 SWAP2 ADD MLOAD PUSH1 0x9 SWAP1 SWAP2 ADD SSTORE PUSH1 0x0 JUMPDEST DUP7 DUP2 LT ISZERO PUSH2 0x9A4 JUMPI PUSH1 0x0 PUSH1 0x64 DUP8 DUP8 DUP5 DUP2 DUP2 LT PUSH2 0x856 JUMPI PUSH2 0x856 PUSH2 0x211B JUMP JUMPDEST SWAP1 POP PUSH1 0x20 MUL ADD CALLDATALOAD DUP12 PUSH2 0x868 SWAP2 SWAP1 PUSH2 0x2298 JUMP JUMPDEST PUSH2 0x872 SWAP2 SWAP1 PUSH2 0x22AF JUMP JUMPDEST SWAP1 POP PUSH1 0x40 MLOAD DUP1 PUSH1 0xA0 ADD PUSH1 0x40 MSTORE DUP1 DUP11 DUP11 DUP6 DUP2 DUP2 LT PUSH2 0x891 JUMPI PUSH2 0x891 PUSH2 0x211B JUMP JUMPDEST SWAP1 POP PUSH1 0x20 MUL DUP2 ADD SWAP1 PUSH2 0x8A3 SWAP2 SWAP1 PUSH2 0x22D1 JUMP JUMPDEST DUP1 DUP1 PUSH1 0x1F ADD PUSH1 0x20 DUP1 SWAP2 DIV MUL PUSH1 0x20 ADD PUSH1 0x40 MLOAD SWAP1 DUP2 ADD PUSH1 0x40 MSTORE DUP1 SWAP4 SWAP3 SWAP2 SWAP1 DUP2 DUP2 MSTORE PUSH1 0x20 ADD DUP4 DUP4 DUP1 DUP3 DUP5 CALLDATACOPY PUSH1 0x0 SWAP3 ADD DUP3 SWAP1 MSTORE POP SWAP4 DUP6 MSTORE POP POP POP PUSH1 0x20 DUP1 DUP4 ADD DUP6 SWAP1 MSTORE PUSH1 0x40 DUP1 MLOAD DUP1 DUP4 ADD DUP3 MSTORE DUP4 DUP2 MSTORE DUP2 DUP6 ADD MSTORE PUSH1 0x60 DUP5 ADD DUP4 SWAP1 MSTORE PUSH1 0x80 SWAP1 SWAP4 ADD DUP3 SWAP1 MSTORE DUP7 DUP3 MSTORE PUSH1 0x4 DUP2 MSTORE DUP3 DUP3 KECCAK256 DUP7 DUP4 MSTORE SWAP1 MSTORE KECCAK256 DUP2 MLOAD DUP2 SWAP1 PUSH2 0x91E SWAP1 DUP3 PUSH2 0x21D8 JUMP JUMPDEST POP PUSH1 0x20 DUP3 ADD MLOAD PUSH1 0x1 DUP3 ADD SSTORE PUSH1 0x40 DUP3 ADD MLOAD PUSH1 0x2 DUP3 ADD SWAP1 PUSH2 0x93D SWAP1 DUP3 PUSH2 0x21D8 JUMP JUMPDEST POP PUSH1 0x60 DUP3 ADD MLOAD DUP2 PUSH1 0x3 ADD PUSH1 0x0 PUSH2 0x100 EXP DUP2 SLOAD DUP2 PUSH1 0xFF MUL NOT AND SWAP1 DUP4 PUSH1 0x3 DUP2 GT ISZERO PUSH2 0x968 JUMPI PUSH2 0x968 PUSH2 0x1C30 JUMP JUMPDEST MUL OR SWAP1 SSTORE POP PUSH1 0x80 SWAP2 SWAP1 SWAP2 ADD MLOAD PUSH1 0x3 SWAP1 SWAP2 ADD DUP1 SLOAD PUSH1 0xFF SWAP1 SWAP3 AND PUSH2 0x100 MUL PUSH2 0xFF00 NOT SWAP1 SWAP3 AND SWAP2 SWAP1 SWAP2 OR SWAP1 SSTORE POP DUP1 PUSH2 0x99C DUP2 PUSH2 0x215A JUMP JUMPDEST SWAP2 POP POP PUSH2 0x838 JUMP JUMPDEST POP CALLER PUSH1 0x1 PUSH1 0x1 PUSH1 0xA0 SHL SUB AND DUP2 PUSH32 0xDC26653AF5B99B2DA33E2AD69EE6600D9AECCC82B034501DB4338309615CA238 DUP15 DUP15 DUP13 DUP13 DUP13 SWAP1 POP PUSH1 0x40 MLOAD PUSH2 0x9E8 SWAP5 SWAP4 SWAP3 SWAP2 SWAP1 PUSH2 0x2341 JUMP JUMPDEST PUSH1 0x40 MLOAD DUP1 SWAP2 SUB SWAP1 LOG3 SWAP12 SWAP11 POP POP POP POP POP POP POP POP POP POP POP JUMP JUMPDEST PUSH1 0x4 PUSH1 0x20 SWAP1 DUP2 MSTORE PUSH1 0x0 SWAP3 DUP4 MSTORE PUSH1 0x40 DUP1 DUP5 KECCAK256 SWAP1 SWAP2 MSTORE SWAP1 DUP3 MSTORE SWAP1 KECCAK256 DUP1 SLOAD DUP2 SWAP1 PUSH2 0xA25 SWAP1 PUSH2 0x20E7 JUMP JUMPDEST DUP1 PUSH1 0x1F ADD PUSH1 0x20 DUP1 SWAP2 DIV MUL PUSH1 0x20 ADD PUSH1 0x40 MLOAD SWAP1 DUP2 ADD PUSH1 0x40 MSTORE DUP1 SWAP3 SWAP2 SWAP1 DUP2 DUP2 MSTORE PUSH1 0x20 ADD DUP3 DUP1 SLOAD PUSH2 0xA51 SWAP1 PUSH2 0x20E7 JUMP JUMPDEST DUP1 ISZERO PUSH2 0xA9E JUMPI DUP1 PUSH1 0x1F LT PUSH2 0xA73 JUMPI PUSH2 0x100 DUP1 DUP4 SLOAD DIV MUL DUP4 MSTORE SWAP2 PUSH1 0x20 ADD SWAP2 PUSH2 0xA9E JUMP JUMPDEST DUP3 ADD SWAP2 SWAP1 PUSH1 0x0 MSTORE PUSH1 0x20 PUSH1 0x0 KECCAK256 SWAP1 JUMPDEST DUP2 SLOAD DUP2 MSTORE SWAP1 PUSH1 0x1 ADD SWAP1 PUSH1 0x20 ADD DUP1 DUP4 GT PUSH2 0xA81 JUMPI DUP3 SWAP1 SUB PUSH1 0x1F AND DUP3 ADD SWAP2 JUMPDEST POP POP POP POP POP SWAP1 DUP1 PUSH1 0x1 ADD SLOAD SWAP1 DUP1 PUSH1 0x2 ADD DUP1 SLOAD PUSH2 0xAB9 SWAP1 PUSH2 0x20E7 JUMP JUMPDEST DUP1 PUSH1 0x1F ADD PUSH1 0x20 DUP1 SWAP2 DIV MUL PUSH1 0x20 ADD PUSH1 0x40 MLOAD SWAP1 DUP2 ADD PUSH1 0x40 MSTORE DUP1 SWAP3 SWAP2 SWAP1 DUP2 DUP2 MSTORE PUSH1 0x20 ADD DUP3 DUP1 SLOAD PUSH2 0xAE5 SWAP1 PUSH2 0x20E7 JUMP JUMPDEST DUP1 ISZERO PUSH2 0xB32 JUMPI DUP1 PUSH1 0x1F LT PUSH2 0xB07 JUMPI PUSH2 0x100 DUP1 DUP4 SLOAD DIV MUL DUP4 MSTORE SWAP2 PUSH1 0x20 ADD SWAP2 PUSH2 0xB32 JUMP JUMPDEST DUP3 ADD SWAP2 SWAP1 PUSH1 0x0 MSTORE PUSH1 0x20 PUSH1 0x0 KECCAK256 SWAP1 JUMPDEST DUP2 SLOAD DUP2 MSTORE SWAP1 PUSH1 0x1 ADD SWAP1 PUSH1 0x20 ADD DUP1 DUP4 GT PUSH2 0xB15 JUMPI DUP3 SWAP1 SUB PUSH1 0x1F AND DUP3 ADD SWAP2 JUMPDEST POP POP POP PUSH1 0x3 SWAP1 SWAP4 ADD SLOAD SWAP2 SWAP3 POP POP PUSH1 0xFF DUP1 DUP3 AND SWAP2 PUSH2 0x100 SWAP1 DIV AND DUP6 JUMP JUMPDEST DUP3 PUSH1 0x1 SLOAD DUP2 LT PUSH2 0xB70 JUMPI PUSH1 0x40 MLOAD PUSH3 0x461BCD PUSH1 0xE5 SHL DUP2 MSTORE PUSH1 0x4 ADD PUSH2 0x532 SWAP1 PUSH2 0x2368 JUMP JUMPDEST PUSH1 0x0 DUP5 DUP2 MSTORE PUSH1 0x3 PUSH1 0x20 MSTORE PUSH1 0x40 SWAP1 KECCAK256 DUP1 SLOAD PUSH1 0x1 PUSH1 0x1 PUSH1 0xA0 SHL SUB AND CALLER EQ PUSH2 0xBD7 JUMPI PUSH1 0x40 MLOAD PUSH3 0x461BCD PUSH1 0xE5 SHL DUP2 MSTORE PUSH1 0x20 PUSH1 0x4 DUP3 ADD MSTORE PUSH1 0x17 PUSH1 0x24 DUP3 ADD MSTORE PUSH32 0x4F6E6C792063726561746F722063616E207375626D6974000000000000000000 PUSH1 0x44 DUP3 ADD MSTORE PUSH1 0x64 ADD PUSH2 0x532 JUMP JUMPDEST PUSH1 0x0 PUSH1 0x6 DUP3 ADD SLOAD PUSH1 0xFF AND PUSH1 0x2 DUP2 GT ISZERO PUSH2 0xBF2 JUMPI PUSH2 0xBF2 PUSH2 0x1C30 JUMP JUMPDEST EQ PUSH2 0xC0F JUMPI PUSH1 0x40 MLOAD PUSH3 0x461BCD PUSH1 0xE5 SHL DUP2 MSTORE PUSH1 0x4 ADD PUSH2 0x532 SWAP1 PUSH2 0x239F JUMP JUMPDEST PUSH1 0x0 DUP2 PUSH1 0x4 ADD SLOAD GT PUSH2 0xC59 JUMPI PUSH1 0x40 MLOAD PUSH3 0x461BCD PUSH1 0xE5 SHL DUP2 MSTORE PUSH1 0x20 PUSH1 0x4 DUP3 ADD MSTORE PUSH1 0x13 PUSH1 0x24 DUP3 ADD MSTORE PUSH19 0x139BC8199D5B991CC81C985A5CD959081E595D PUSH1 0x6A SHL PUSH1 0x44 DUP3 ADD MSTORE PUSH1 0x64 ADD PUSH2 0x532 JUMP JUMPDEST PUSH1 0x8 DUP2 ADD SLOAD PUSH1 0x7 DUP3 ADD SLOAD DUP2 LT PUSH2 0xCB1 JUMPI PUSH1 0x40 MLOAD PUSH3 0x461BCD PUSH1 0xE5 SHL DUP2 MSTORE PUSH1 0x20 PUSH1 0x4 DUP3 ADD MSTORE PUSH1 0x18 PUSH1 0x24 DUP3 ADD MSTORE PUSH32 0x416C6C206D696C6573746F6E657320636F6D706C657465640000000000000000 PUSH1 0x44 DUP3 ADD MSTORE PUSH1 0x64 ADD PUSH2 0x532 JUMP JUMPDEST PUSH1 0x0 DUP7 DUP2 MSTORE PUSH1 0x4 PUSH1 0x20 SWAP1 DUP2 MSTORE PUSH1 0x40 DUP1 DUP4 KECCAK256 DUP5 DUP5 MSTORE SWAP1 SWAP2 MSTORE DUP2 KECCAK256 SWAP1 PUSH1 0x3 DUP1 DUP4 ADD SLOAD PUSH1 0xFF AND SWAP1 DUP2 GT ISZERO PUSH2 0xCE4 JUMPI PUSH2 0xCE4 PUSH2 0x1C30 JUMP JUMPDEST EQ PUSH2 0xD25 JUMPI PUSH1 0x40 MLOAD PUSH3 0x461BCD PUSH1 0xE5 SHL DUP2 MSTORE PUSH1 0x20 PUSH1 0x4 DUP3 ADD MSTORE PUSH1 0x11 PUSH1 0x24 DUP3 ADD MSTORE PUSH17 0x105B1C9958591E481CDD589B5A5D1D1959 PUSH1 0x7A SHL PUSH1 0x44 DUP3 ADD MSTORE PUSH1 0x64 ADD PUSH2 0x532 JUMP JUMPDEST DUP5 PUSH2 0xD67 JUMPI PUSH1 0x40 MLOAD PUSH3 0x461BCD PUSH1 0xE5 SHL DUP2 MSTORE PUSH1 0x20 PUSH1 0x4 DUP3 ADD MSTORE PUSH1 0x12 PUSH1 0x24 DUP3 ADD MSTORE PUSH18 0x141C9BDBD988155493081C995C5D5A5C9959 PUSH1 0x72 SHL PUSH1 0x44 DUP3 ADD MSTORE PUSH1 0x64 ADD PUSH2 0x532 JUMP JUMPDEST PUSH1 0x2 DUP2 ADD PUSH2 0xD76 DUP7 DUP9 DUP4 PUSH2 0x23CC JUMP JUMPDEST POP PUSH1 0x3 DUP2 ADD DUP1 SLOAD PUSH1 0xFF NOT AND PUSH1 0x1 OR SWAP1 SSTORE PUSH1 0x40 MLOAD DUP3 SWAP1 DUP9 SWAP1 PUSH32 0x556E3B296D5E8C8BAB27684B52AE96905507BEFD2D188CE6F4453A6717DD9C00 SWAP1 PUSH2 0xDBC SWAP1 DUP11 SWAP1 DUP11 SWAP1 PUSH2 0x248C JUMP JUMPDEST PUSH1 0x40 MLOAD DUP1 SWAP2 SUB SWAP1 LOG3 POP POP POP POP POP POP POP JUMP JUMPDEST PUSH1 0x2 SLOAD PUSH1 0x1 PUSH1 0x1 PUSH1 0xA0 SHL SUB AND CALLER EQ PUSH2 0xE20 JUMPI PUSH1 0x40 MLOAD PUSH3 0x461BCD PUSH1 0xE5 SHL DUP2 MSTORE PUSH1 0x20 PUSH1 0x4 DUP3 ADD MSTORE PUSH1 0x16 PUSH1 0x24 DUP3 ADD MSTORE PUSH22 0x13DB9B1E481D995C9A599A595C8818D85B8818D85B1B PUSH1 0x52 SHL PUSH1 0x44 DUP3 ADD MSTORE PUSH1 0x64 ADD PUSH2 0x532 JUMP JUMPDEST PUSH1 0x2 DUP1 SLOAD PUSH1 0x1 PUSH1 0x1 PUSH1 0xA0 SHL SUB NOT AND PUSH1 0x1 PUSH1 0x1 PUSH1 0xA0 SHL SUB SWAP3 SWAP1 SWAP3 AND SWAP2 SWAP1 SWAP2 OR SWAP1 SSTORE JUMP JUMPDEST PUSH2 0xE4A PUSH2 0x1B24 JUMP JUMPDEST DUP2 PUSH1 0x1 SLOAD DUP2 LT PUSH2 0xE6C JUMPI PUSH1 0x40 MLOAD PUSH3 0x461BCD PUSH1 0xE5 SHL DUP2 MSTORE PUSH1 0x4 ADD PUSH2 0x532 SWAP1 PUSH2 0x2368 JUMP JUMPDEST PUSH1 0x0 DUP4 DUP2 MSTORE PUSH1 0x3 PUSH1 0x20 SWAP1 DUP2 MSTORE PUSH1 0x40 SWAP2 DUP3 SWAP1 KECCAK256 DUP3 MLOAD PUSH2 0x140 DUP2 ADD SWAP1 SWAP4 MSTORE DUP1 SLOAD PUSH1 0x1 PUSH1 0x1 PUSH1 0xA0 SHL SUB AND DUP4 MSTORE PUSH1 0x1 DUP2 ADD DUP1 SLOAD SWAP2 SWAP3 DUP5 ADD SWAP2 PUSH2 0xEA9 SWAP1 PUSH2 0x20E7 JUMP JUMPDEST DUP1 PUSH1 0x1F ADD PUSH1 0x20 DUP1 SWAP2 DIV MUL PUSH1 0x20 ADD PUSH1 0x40 MLOAD SWAP1 DUP2 ADD PUSH1 0x40 MSTORE DUP1 SWAP3 SWAP2 SWAP1 DUP2 DUP2 MSTORE PUSH1 0x20 ADD DUP3 DUP1 SLOAD PUSH2 0xED5 SWAP1 PUSH2 0x20E7 JUMP JUMPDEST DUP1 ISZERO PUSH2 0xF22 JUMPI DUP1 PUSH1 0x1F LT PUSH2 0xEF7 JUMPI PUSH2 0x100 DUP1 DUP4 SLOAD DIV MUL DUP4 MSTORE SWAP2 PUSH1 0x20 ADD SWAP2 PUSH2 0xF22 JUMP JUMPDEST DUP3 ADD SWAP2 SWAP1 PUSH1 0x0 MSTORE PUSH1 0x20 PUSH1 0x0 KECCAK256 SWAP1 JUMPDEST DUP2 SLOAD DUP2 MSTORE SWAP1 PUSH1 0x1 ADD SWAP1 PUSH1 0x20 ADD DUP1 DUP4 GT PUSH2 0xF05 JUMPI DUP3 SWAP1 SUB PUSH1 0x1F AND DUP3 ADD SWAP2 JUMPDEST POP POP POP POP POP DUP2 MSTORE PUSH1 0x20 ADD PUSH1 0x2 DUP3 ADD DUP1 SLOAD PUSH2 0xF3B SWAP1 PUSH2 0x20E7 JUMP JUMPDEST DUP1 PUSH1 0x1F ADD PUSH1 0x20 DUP1 SWAP2 DIV MUL PUSH1 0x20 ADD PUSH1 0x40 MLOAD SWAP1 DUP2 ADD PUSH1 0x40 MSTORE DUP1 SWAP3 SWAP2 SWAP1 DUP2 DUP2 MSTORE PUSH1 0x20 ADD DUP3 DUP1 SLOAD PUSH2 0xF67 SWAP1 PUSH2 0x20E7 JUMP JUMPDEST DUP1 ISZERO PUSH2 0xFB4 JUMPI DUP1 PUSH1 0x1F LT PUSH2 0xF89 JUMPI PUSH2 0x100 DUP1 DUP4 SLOAD DIV MUL DUP4 MSTORE SWAP2 PUSH1 0x20 ADD SWAP2 PUSH2 0xFB4 JUMP JUMPDEST DUP3 ADD SWAP2 SWAP1 PUSH1 0x0 MSTORE PUSH1 0x20 PUSH1 0x0 KECCAK256 SWAP1 JUMPDEST DUP2 SLOAD DUP2 MSTORE SWAP1 PUSH1 0x1 ADD SWAP1 PUSH1 0x20 ADD DUP1 DUP4 GT PUSH2 0xF97 JUMPI DUP3 SWAP1 SUB PUSH1 0x1F AND DUP3 ADD SWAP2 JUMPDEST POP POP POP SWAP2 DUP4 MSTORE POP POP PUSH1 0x3 DUP3 ADD SLOAD PUSH1 0x20 DUP3 ADD MSTORE PUSH1 0x4 DUP3 ADD SLOAD PUSH1 0x40 DUP3 ADD MSTORE PUSH1 0x5 DUP3 ADD SLOAD PUSH1 0x60 DUP3 ADD MSTORE PUSH1 0x6 DUP3 ADD SLOAD PUSH1 0x80 SWAP1 SWAP2 ADD SWAP1 PUSH1 0xFF AND PUSH1 0x2 DUP2 GT ISZERO PUSH2 0xFF9 JUMPI PUSH2 0xFF9 PUSH2 0x1C30 JUMP JUMPDEST PUSH1 0x2 DUP2 GT ISZERO PUSH2 0x100A JUMPI PUSH2 0x100A PUSH2 0x1C30 JUMP JUMPDEST DUP2 MSTORE PUSH1 0x20 ADD PUSH1 0x7 DUP3 ADD SLOAD DUP2 MSTORE PUSH1 0x20 ADD PUSH1 0x8 DUP3 ADD SLOAD DUP2 MSTORE PUSH1 0x20 ADD PUSH1 0x9 DUP3 ADD SLOAD DUP2 MSTORE POP POP SWAP2 POP JUMPDEST POP SWAP2 SWAP1 POP JUMP JUMPDEST DUP1 PUSH1 0x1 SLOAD DUP2 LT PUSH2 0x1057 JUMPI PUSH1 0x40 MLOAD PUSH3 0x461BCD PUSH1 0xE5 SHL DUP2 MSTORE PUSH1 0x4 ADD PUSH2 0x532 SWAP1 PUSH2 0x2368 JUMP JUMPDEST PUSH2 0x105F PUSH2 0x1AFA JUMP JUMPDEST PUSH1 0x0 DUP3 DUP2 MSTORE PUSH1 0x3 PUSH1 0x20 MSTORE PUSH1 0x40 SWAP1 KECCAK256 PUSH1 0x2 PUSH1 0x6 DUP3 ADD SLOAD PUSH1 0xFF AND PUSH1 0x2 DUP2 GT ISZERO PUSH2 0x1088 JUMPI PUSH2 0x1088 PUSH2 0x1C30 JUMP JUMPDEST EQ PUSH2 0x10CB JUMPI PUSH1 0x40 MLOAD PUSH3 0x461BCD PUSH1 0xE5 SHL DUP2 MSTORE PUSH1 0x20 PUSH1 0x4 DUP3 ADD MSTORE PUSH1 0x13 PUSH1 0x24 DUP3 ADD MSTORE PUSH19 0x10D85B5C185A59DB881B9BDD0819985A5B1959 PUSH1 0x6A SHL PUSH1 0x44 DUP3 ADD MSTORE PUSH1 0x64 ADD PUSH2 0x532 JUMP JUMPDEST PUSH1 0x0 DUP4 DUP2 MSTORE PUSH1 0x5 PUSH1 0x20 SWAP1 DUP2 MSTORE PUSH1 0x40 DUP1 DUP4 KECCAK256 CALLER DUP5 MSTORE SWAP1 SWAP2 MSTORE SWAP1 KECCAK256 SLOAD DUP1 PUSH2 0x112A JUMPI PUSH1 0x40 MLOAD PUSH3 0x461BCD PUSH1 0xE5 SHL DUP2 MSTORE PUSH1 0x20 PUSH1 0x4 DUP3 ADD MSTORE PUSH1 0x15 PUSH1 0x24 DUP3 ADD MSTORE PUSH21 0x139BC818DBDB9D1C9A589D5D1A5BDB88199BDD5B99 PUSH1 0x5A SHL PUSH1 0x44 DUP3 ADD MSTORE PUSH1 0x64 ADD PUSH2 0x532 JUMP JUMPDEST PUSH1 0x0 DUP3 PUSH1 0x5 ADD SLOAD DUP4 PUSH1 0x4 ADD SLOAD PUSH2 0x1140 SWAP2 SWAP1 PUSH2 0x24A8 JUMP JUMPDEST PUSH1 0x4 DUP5 ADD SLOAD SWAP1 SWAP2 POP PUSH1 0x0 DUP2 PUSH2 0x1155 DUP5 DUP7 PUSH2 0x2298 JUMP JUMPDEST PUSH2 0x115F SWAP2 SWAP1 PUSH2 0x22AF JUMP JUMPDEST SWAP1 POP PUSH1 0x0 DUP2 GT PUSH2 0x11A7 JUMPI PUSH1 0x40 MLOAD PUSH3 0x461BCD PUSH1 0xE5 SHL DUP2 MSTORE PUSH1 0x20 PUSH1 0x4 DUP3 ADD MSTORE PUSH1 0x13 PUSH1 0x24 DUP3 ADD MSTORE PUSH19 0x4E6F20726566756E6420617661696C61626C65 PUSH1 0x68 SHL PUSH1 0x44 DUP3 ADD MSTORE PUSH1 0x64 ADD PUSH2 0x532 JUMP JUMPDEST PUSH1 0x0 DUP8 DUP2 MSTORE PUSH1 0x5 PUSH1 0x20 SWAP1 DUP2 MSTORE PUSH1 0x40 DUP1 DUP4 KECCAK256 CALLER DUP1 DUP6 MSTORE SWAP3 MSTORE DUP1 DUP4 KECCAK256 DUP4 SWAP1 SSTORE MLOAD DUP4 SWAP1 DUP4 DUP2 DUP2 DUP2 DUP6 DUP8 GAS CALL SWAP3 POP POP POP RETURNDATASIZE DUP1 PUSH1 0x0 DUP2 EQ PUSH2 0x11FF JUMPI PUSH1 0x40 MLOAD SWAP2 POP PUSH1 0x1F NOT PUSH1 0x3F RETURNDATASIZE ADD AND DUP3 ADD PUSH1 0x40 MSTORE RETURNDATASIZE DUP3 MSTORE RETURNDATASIZE PUSH1 0x0 PUSH1 0x20 DUP5 ADD RETURNDATACOPY PUSH2 0x1204 JUMP JUMPDEST PUSH1 0x60 SWAP2 POP JUMPDEST POP POP SWAP1 POP DUP1 PUSH2 0x124E JUMPI PUSH1 0x40 MLOAD PUSH3 0x461BCD PUSH1 0xE5 SHL DUP2 MSTORE PUSH1 0x20 PUSH1 0x4 DUP3 ADD MSTORE PUSH1 0x16 PUSH1 0x24 DUP3 ADD MSTORE PUSH22 0x1499599D5B99081D1C985B9CD9995C8819985A5B1959 PUSH1 0x52 SHL PUSH1 0x44 DUP3 ADD MSTORE PUSH1 0x64 ADD PUSH2 0x532 JUMP JUMPDEST PUSH1 0x40 MLOAD DUP3 DUP2 MSTORE CALLER SWAP1 DUP10 SWAP1 PUSH32 0xF3F402280EF0A7905E124AA621B65EAEB2725C343E8B36D398ED78C29DAF285C SWAP1 PUSH1 0x20 ADD PUSH1 0x40 MLOAD DUP1 SWAP2 SUB SWAP1 LOG3 POP POP POP POP POP POP PUSH2 0x1295 PUSH1 0x1 PUSH1 0x0 SSTORE JUMP JUMPDEST POP POP JUMP JUMPDEST PUSH1 0x0 DUP2 PUSH1 0x1 SLOAD DUP2 LT PUSH2 0x12BD JUMPI PUSH1 0x40 MLOAD PUSH3 0x461BCD PUSH1 0xE5 SHL DUP2 MSTORE PUSH1 0x4 ADD PUSH2 0x532 SWAP1 PUSH2 0x2368 JUMP JUMPDEST POP POP PUSH1 0x0 SWAP1 DUP2 MSTORE PUSH1 0x6 PUSH1 0x20 MSTORE PUSH1 0x40 SWAP1 KECCAK256 SLOAD SWAP1 JUMP JUMPDEST PUSH1 0x6 PUSH1 0x20 MSTORE DUP2 PUSH1 0x0 MSTORE PUSH1 0x40 PUSH1 0x0 KECCAK256 DUP2 DUP2 SLOAD DUP2 LT PUSH2 0x12ED JUMPI PUSH1 0x0 DUP1 REVERT JUMPDEST PUSH1 0x0 SWAP2 DUP3 MSTORE PUSH1 0x20 SWAP1 SWAP2 KECCAK256 ADD SLOAD PUSH1 0x1 PUSH1 0x1 PUSH1 0xA0 SHL SUB AND SWAP2 POP DUP3 SWAP1 POP JUMP JUMPDEST PUSH2 0x1311 PUSH2 0x1B91 JUMP JUMPDEST DUP3 PUSH1 0x1 SLOAD DUP2 LT PUSH2 0x1333 JUMPI PUSH1 0x40 MLOAD PUSH3 0x461BCD PUSH1 0xE5 SHL DUP2 MSTORE PUSH1 0x4 ADD PUSH2 0x532 SWAP1 PUSH2 0x2368 JUMP JUMPDEST PUSH1 0x0 DUP5 DUP2 MSTORE PUSH1 0x3 PUSH1 0x20 MSTORE PUSH1 0x40 SWAP1 KECCAK256 PUSH1 0x7 ADD SLOAD DUP4 LT PUSH2 0x1387 JUMPI PUSH1 0x40 MLOAD PUSH3 0x461BCD PUSH1 0xE5 SHL DUP2 MSTORE PUSH1 0x20 PUSH1 0x4 DUP3 ADD MSTORE PUSH1 0x11 PUSH1 0x24 DUP3 ADD MSTORE PUSH17 0x496E76616C6964206D696C6573746F6E65 PUSH1 0x78 SHL PUSH1 0x44 DUP3 ADD MSTORE PUSH1 0x64 ADD PUSH2 0x532 JUMP JUMPDEST PUSH1 0x0 DUP5 DUP2 MSTORE PUSH1 0x4 PUSH1 0x20 SWAP1 DUP2 MSTORE PUSH1 0x40 DUP1 DUP4 KECCAK256 DUP7 DUP5 MSTORE SWAP1 SWAP2 MSTORE SWAP1 DUP2 SWAP1 KECCAK256 DUP2 MLOAD PUSH1 0xA0 DUP2 ADD SWAP1 SWAP3 MSTORE DUP1 SLOAD DUP3 SWAP1 DUP3 SWAP1 PUSH2 0x13BA SWAP1 PUSH2 0x20E7 JUMP JUMPDEST DUP1 PUSH1 0x1F ADD PUSH1 0x20 DUP1 SWAP2 DIV MUL PUSH1 0x20 ADD PUSH1 0x40 MLOAD SWAP1 DUP2 ADD PUSH1 0x40 MSTORE DUP1 SWAP3 SWAP2 SWAP1 DUP2 DUP2 MSTORE PUSH1 0x20 ADD DUP3 DUP1 SLOAD PUSH2 0x13E6 SWAP1 PUSH2 0x20E7 JUMP JUMPDEST DUP1 ISZERO PUSH2 0x1433 JUMPI DUP1 PUSH1 0x1F LT PUSH2 0x1408 JUMPI PUSH2 0x100 DUP1 DUP4 SLOAD DIV MUL DUP4 MSTORE SWAP2 PUSH1 0x20 ADD SWAP2 PUSH2 0x1433 JUMP JUMPDEST DUP3 ADD SWAP2 SWAP1 PUSH1 0x0 MSTORE PUSH1 0x20 PUSH1 0x0 KECCAK256 SWAP1 JUMPDEST DUP2 SLOAD DUP2 MSTORE SWAP1 PUSH1 0x1 ADD SWAP1 PUSH1 0x20 ADD DUP1 DUP4 GT PUSH2 0x1416 JUMPI DUP3 SWAP1 SUB PUSH1 0x1F AND DUP3 ADD SWAP2 JUMPDEST POP POP POP POP POP DUP2 MSTORE PUSH1 0x20 ADD PUSH1 0x1 DUP3 ADD SLOAD DUP2 MSTORE PUSH1 0x20 ADD PUSH1 0x2 DUP3 ADD DUP1 SLOAD PUSH2 0x1456 SWAP1 PUSH2 0x20E7 JUMP JUMPDEST DUP1 PUSH1 0x1F ADD PUSH1 0x20 DUP1 SWAP2 DIV MUL PUSH1 0x20 ADD PUSH1 0x40 MLOAD SWAP1 DUP2 ADD PUSH1 0x40 MSTORE DUP1 SWAP3 SWAP2 SWAP1 DUP2 DUP2 MSTORE PUSH1 0x20 ADD DUP3 DUP1 SLOAD PUSH2 0x1482 SWAP1 PUSH2 0x20E7 JUMP JUMPDEST DUP1 ISZERO PUSH2 0x14CF JUMPI DUP1 PUSH1 0x1F LT PUSH2 0x14A4 JUMPI PUSH2 0x100 DUP1 DUP4 SLOAD DIV MUL DUP4 MSTORE SWAP2 PUSH1 0x20 ADD SWAP2 PUSH2 0x14CF JUMP JUMPDEST DUP3 ADD SWAP2 SWAP1 PUSH1 0x0 MSTORE PUSH1 0x20 PUSH1 0x0 KECCAK256 SWAP1 JUMPDEST DUP2 SLOAD DUP2 MSTORE SWAP1 PUSH1 0x1 ADD SWAP1 PUSH1 0x20 ADD DUP1 DUP4 GT PUSH2 0x14B2 JUMPI DUP3 SWAP1 SUB PUSH1 0x1F AND DUP3 ADD SWAP2 JUMPDEST POP POP POP SWAP2 DUP4 MSTORE POP POP PUSH1 0x3 DUP3 DUP2 ADD SLOAD PUSH1 0x20 SWAP1 SWAP3 ADD SWAP2 PUSH1 0xFF AND SWAP1 DUP2 GT ISZERO PUSH2 0x14F6 JUMPI PUSH2 0x14F6 PUSH2 0x1C30 JUMP JUMPDEST PUSH1 0x3 DUP2 GT ISZERO PUSH2 0x1507 JUMPI PUSH2 0x1507 PUSH2 0x1C30 JUMP JUMPDEST DUP2 MSTORE PUSH1 0x3 SWAP2 SWAP1 SWAP2 ADD SLOAD PUSH2 0x100 SWAP1 DIV PUSH1 0xFF AND PUSH1 0x20 SWAP1 SWAP2 ADD MSTORE SWAP5 SWAP4 POP POP POP POP JUMP JUMPDEST PUSH1 0x2 SLOAD PUSH1 0x1 PUSH1 0x1 PUSH1 0xA0 SHL SUB AND CALLER EQ PUSH2 0x1579 JUMPI PUSH1 0x40 MLOAD PUSH3 0x461BCD PUSH1 0xE5 SHL DUP2 MSTORE PUSH1 0x20 PUSH1 0x4 DUP3 ADD MSTORE PUSH1 0x16 PUSH1 0x24 DUP3 ADD MSTORE PUSH22 0x13DB9B1E481D995C9A599A595C8818D85B8818D85B1B PUSH1 0x52 SHL PUSH1 0x44 DUP3 ADD MSTORE PUSH1 0x64 ADD PUSH2 0x532 JUMP JUMPDEST DUP4 PUSH1 0x1 SLOAD DUP2 LT PUSH2 0x159B JUMPI PUSH1 0x40 MLOAD PUSH3 0x461BCD PUSH1 0xE5 SHL DUP2 MSTORE PUSH1 0x4 ADD PUSH2 0x532 SWAP1 PUSH2 0x2368 JUMP JUMPDEST PUSH2 0x15A3 PUSH2 0x1AFA JUMP JUMPDEST PUSH1 0x0 DUP6 DUP2 MSTORE PUSH1 0x3 PUSH1 0x20 MSTORE PUSH1 0x40 DUP2 KECCAK256 SWAP1 PUSH1 0x6 DUP3 ADD SLOAD PUSH1 0xFF AND PUSH1 0x2 DUP2 GT ISZERO PUSH2 0x15CB JUMPI PUSH2 0x15CB PUSH2 0x1C30 JUMP JUMPDEST EQ PUSH2 0x15E8 JUMPI PUSH1 0x40 MLOAD PUSH3 0x461BCD PUSH1 0xE5 SHL DUP2 MSTORE PUSH1 0x4 ADD PUSH2 0x532 SWAP1 PUSH2 0x239F JUMP JUMPDEST DUP1 PUSH1 0x8 ADD SLOAD DUP6 EQ PUSH2 0x162D JUMPI PUSH1 0x40 MLOAD PUSH3 0x461BCD PUSH1 0xE5 SHL DUP2 MSTORE PUSH1 0x20 PUSH1 0x4 DUP3 ADD MSTORE PUSH1 0xF PUSH1 0x24 DUP3 ADD MSTORE PUSH15 0x57726F6E67206D696C6573746F6E65 PUSH1 0x88 SHL PUSH1 0x44 DUP3 ADD MSTORE PUSH1 0x64 ADD PUSH2 0x532 JUMP JUMPDEST PUSH1 0x0 DUP7 DUP2 MSTORE PUSH1 0x4 PUSH1 0x20 SWAP1 DUP2 MSTORE PUSH1 0x40 DUP1 DUP4 KECCAK256 DUP9 DUP5 MSTORE SWAP1 SWAP2 MSTORE SWAP1 KECCAK256 PUSH1 0x1 PUSH1 0x3 DUP1 DUP4 ADD SLOAD PUSH1 0xFF AND SWAP1 DUP2 GT ISZERO PUSH2 0x1661 JUMPI PUSH2 0x1661 PUSH2 0x1C30 JUMP JUMPDEST EQ PUSH2 0x169E JUMPI PUSH1 0x40 MLOAD PUSH3 0x461BCD PUSH1 0xE5 SHL DUP2 MSTORE PUSH1 0x20 PUSH1 0x4 DUP3 ADD MSTORE PUSH1 0xD PUSH1 0x24 DUP3 ADD MSTORE PUSH13 0x139BDD081CDD589B5A5D1D1959 PUSH1 0x9A SHL PUSH1 0x44 DUP3 ADD MSTORE PUSH1 0x64 ADD PUSH2 0x532 JUMP JUMPDEST PUSH1 0x3 DUP2 ADD DUP1 SLOAD PUSH2 0xFF00 NOT AND PUSH2 0x100 PUSH1 0xFF DUP8 AND MUL OR SWAP1 SSTORE DUP5 ISZERO PUSH2 0x189A JUMPI PUSH1 0x3 DUP2 ADD DUP1 SLOAD PUSH1 0xFF NOT AND PUSH1 0x2 OR SWAP1 SSTORE PUSH1 0x1 DUP2 ADD SLOAD PUSH1 0x5 DUP4 ADD SLOAD PUSH1 0x4 DUP5 ADD SLOAD PUSH2 0x16E2 SWAP2 SWAP1 PUSH2 0x24A8 JUMP JUMPDEST DUP2 GT ISZERO PUSH2 0x1700 JUMPI DUP3 PUSH1 0x5 ADD SLOAD DUP4 PUSH1 0x4 ADD SLOAD PUSH2 0x16FD SWAP2 SWAP1 PUSH2 0x24A8 JUMP JUMPDEST SWAP1 POP JUMPDEST DUP1 DUP4 PUSH1 0x5 ADD PUSH1 0x0 DUP3 DUP3 SLOAD PUSH2 0x1714 SWAP2 SWAP1 PUSH2 0x2147 JUMP JUMPDEST SWAP1 SWAP2 SSTORE POP POP PUSH1 0x8 DUP4 ADD DUP1 SLOAD SWAP1 PUSH1 0x0 PUSH2 0x172B DUP4 PUSH2 0x215A JUMP JUMPDEST SWAP1 SWAP2 SSTORE POP POP DUP3 SLOAD PUSH1 0x40 MLOAD PUSH1 0x0 SWAP2 PUSH1 0x1 PUSH1 0x1 PUSH1 0xA0 SHL SUB AND SWAP1 DUP4 SWAP1 DUP4 DUP2 DUP2 DUP2 DUP6 DUP8 GAS CALL SWAP3 POP POP POP RETURNDATASIZE DUP1 PUSH1 0x0 DUP2 EQ PUSH2 0x177C JUMPI PUSH1 0x40 MLOAD SWAP2 POP PUSH1 0x1F NOT PUSH1 0x3F RETURNDATASIZE ADD AND DUP3 ADD PUSH1 0x40 MSTORE RETURNDATASIZE DUP3 MSTORE RETURNDATASIZE PUSH1 0x0 PUSH1 0x20 DUP5 ADD RETURNDATACOPY PUSH2 0x1781 JUMP JUMPDEST PUSH1 0x60 SWAP2 POP JUMPDEST POP POP SWAP1 POP DUP1 PUSH2 0x17C4 JUMPI PUSH1 0x40 MLOAD PUSH3 0x461BCD PUSH1 0xE5 SHL DUP2 MSTORE PUSH1 0x20 PUSH1 0x4 DUP3 ADD MSTORE PUSH1 0xF PUSH1 0x24 DUP3 ADD MSTORE PUSH15 0x151C985B9CD9995C8819985A5B1959 PUSH1 0x8A SHL PUSH1 0x44 DUP3 ADD MSTORE PUSH1 0x64 ADD PUSH2 0x532 JUMP JUMPDEST PUSH1 0x40 DUP1 MLOAD PUSH1 0x1 DUP2 MSTORE PUSH1 0xFF DUP9 AND PUSH1 0x20 DUP3 ADD MSTORE DUP10 SWAP2 DUP12 SWAP2 PUSH32 0x44C83B57568944E9BAC4F1F4B626B117BB8009B2DF87219DC10877872C141CB4 SWAP2 ADD PUSH1 0x40 MLOAD DUP1 SWAP2 SUB SWAP1 LOG3 DUP4 SLOAD PUSH1 0x40 MLOAD DUP4 DUP2 MSTORE PUSH1 0x1 PUSH1 0x1 PUSH1 0xA0 SHL SUB SWAP1 SWAP2 AND SWAP1 DUP10 SWAP1 DUP12 SWAP1 PUSH32 0xD5EB304362FFE48045A3AE2ED7E0D2CFED08EB62F44DC87C694D42606E8205D9 SWAP1 PUSH1 0x20 ADD PUSH1 0x40 MLOAD DUP1 SWAP2 SUB SWAP1 LOG4 DUP4 PUSH1 0x7 ADD SLOAD DUP5 PUSH1 0x8 ADD SLOAD LT PUSH2 0x1893 JUMPI PUSH1 0x6 DUP5 ADD DUP1 SLOAD PUSH1 0xFF NOT AND PUSH1 0x1 OR SWAP1 SSTORE PUSH1 0x40 MLOAD DUP10 SWAP1 PUSH32 0xBDEF6A2E3AA892961A2DAB48272F72F2BC1C7121EB1C0ED7E4A58E081C1E4BE0 SWAP1 PUSH1 0x0 SWAP1 LOG2 JUMPDEST POP POP PUSH2 0x1926 JUMP JUMPDEST PUSH1 0x3 DUP2 DUP2 ADD DUP1 SLOAD PUSH1 0xFF NOT SWAP1 DUP2 AND SWAP1 SWAP3 OR SWAP1 SSTORE PUSH1 0x6 DUP4 ADD DUP1 SLOAD SWAP1 SWAP2 AND PUSH1 0x2 OR SWAP1 SSTORE PUSH1 0x40 DUP1 MLOAD PUSH1 0x0 DUP2 MSTORE PUSH1 0xFF DUP7 AND PUSH1 0x20 DUP3 ADD MSTORE DUP8 SWAP2 DUP10 SWAP2 PUSH32 0x44C83B57568944E9BAC4F1F4B626B117BB8009B2DF87219DC10877872C141CB4 SWAP2 ADD PUSH1 0x40 MLOAD DUP1 SWAP2 SUB SWAP1 LOG3 PUSH1 0x40 MLOAD DUP8 SWAP1 PUSH32 0x7B1418B19A03B176F641639EE79855DA661FA88A08377ECD32AD6D38152B9536 SWAP1 PUSH1 0x0 SWAP1 LOG2 JUMPDEST POP POP PUSH2 0x1932 PUSH1 0x1 PUSH1 0x0 SSTORE JUMP JUMPDEST POP POP POP POP POP JUMP JUMPDEST DUP1 PUSH1 0x1 SLOAD DUP2 LT PUSH2 0x195B JUMPI PUSH1 0x40 MLOAD PUSH3 0x461BCD PUSH1 0xE5 SHL DUP2 MSTORE PUSH1 0x4 ADD PUSH2 0x532 SWAP1 PUSH2 0x2368 JUMP JUMPDEST PUSH2 0x1963 PUSH2 0x1AFA JUMP JUMPDEST PUSH1 0x0 DUP3 DUP2 MSTORE PUSH1 0x3 PUSH1 0x20 MSTORE PUSH1 0x40 DUP2 KECCAK256 SWAP1 PUSH1 0x6 DUP3 ADD SLOAD PUSH1 0xFF AND PUSH1 0x2 DUP2 GT ISZERO PUSH2 0x198B JUMPI PUSH2 0x198B PUSH2 0x1C30 JUMP JUMPDEST EQ PUSH2 0x19A8 JUMPI PUSH1 0x40 MLOAD PUSH3 0x461BCD PUSH1 0xE5 SHL DUP2 MSTORE PUSH1 0x4 ADD PUSH2 0x532 SWAP1 PUSH2 0x239F JUMP JUMPDEST PUSH1 0x0 CALLVALUE GT PUSH2 0x19EA JUMPI PUSH1 0x40 MLOAD PUSH3 0x461BCD PUSH1 0xE5 SHL DUP2 MSTORE PUSH1 0x20 PUSH1 0x4 DUP3 ADD MSTORE PUSH1 0xF PUSH1 0x24 DUP3 ADD MSTORE PUSH15 0x4D7573742073656E642066756E6473 PUSH1 0x88 SHL PUSH1 0x44 DUP3 ADD MSTORE PUSH1 0x64 ADD PUSH2 0x532 JUMP JUMPDEST PUSH1 0x0 DUP4 DUP2 MSTORE PUSH1 0x5 PUSH1 0x20 SWAP1 DUP2 MSTORE PUSH1 0x40 DUP1 DUP4 KECCAK256 CALLER DUP5 MSTORE SWAP1 SWAP2 MSTORE DUP2 KECCAK256 SLOAD SWAP1 SUB PUSH2 0x1A39 JUMPI PUSH1 0x0 DUP4 DUP2 MSTORE PUSH1 0x6 PUSH1 0x20 SWAP1 DUP2 MSTORE PUSH1 0x40 DUP3 KECCAK256 DUP1 SLOAD PUSH1 0x1 DUP2 ADD DUP3 SSTORE SWAP1 DUP4 MSTORE SWAP2 KECCAK256 ADD DUP1 SLOAD PUSH1 0x1 PUSH1 0x1 PUSH1 0xA0 SHL SUB NOT AND CALLER OR SWAP1 SSTORE JUMPDEST PUSH1 0x0 DUP4 DUP2 MSTORE PUSH1 0x5 PUSH1 0x20 SWAP1 DUP2 MSTORE PUSH1 0x40 DUP1 DUP4 KECCAK256 CALLER DUP5 MSTORE SWAP1 SWAP2 MSTORE DUP2 KECCAK256 DUP1 SLOAD CALLVALUE SWAP3 SWAP1 PUSH2 0x1A62 SWAP1 DUP5 SWAP1 PUSH2 0x2147 JUMP JUMPDEST SWAP3 POP POP DUP2 SWAP1 SSTORE POP CALLVALUE DUP2 PUSH1 0x4 ADD PUSH1 0x0 DUP3 DUP3 SLOAD PUSH2 0x1A7D SWAP2 SWAP1 PUSH2 0x2147 JUMP JUMPDEST SWAP1 SWAP2 SSTORE POP POP PUSH1 0x4 DUP2 ADD SLOAD PUSH1 0x40 DUP1 MLOAD CALLVALUE DUP2 MSTORE PUSH1 0x20 DUP2 ADD SWAP3 SWAP1 SWAP3 MSTORE CALLER SWAP2 DUP6 SWAP2 PUSH32 0xD2D33C5340520954AE03D46BA5F056DD7ADB35260F86DF538A709BED96D89AFB SWAP2 ADD PUSH1 0x40 MLOAD DUP1 SWAP2 SUB SWAP1 LOG3 POP PUSH2 0x1295 PUSH1 0x1 PUSH1 0x0 SSTORE JUMP JUMPDEST PUSH1 0x0 DUP3 DUP2 MSTORE PUSH1 0x5 PUSH1 0x20 SWAP1 DUP2 MSTORE PUSH1 0x40 DUP1 DUP4 KECCAK256 PUSH1 0x1 PUSH1 0x1 PUSH1 0xA0 SHL SUB DUP6 AND DUP5 MSTORE SWAP1 SWAP2 MSTORE SWAP1 KECCAK256 SLOAD JUMPDEST SWAP3 SWAP2 POP POP JUMP JUMPDEST PUSH1 0x2 PUSH1 0x0 SLOAD SUB PUSH2 0x1B1D JUMPI PUSH1 0x40 MLOAD PUSH4 0x3EE5AEB5 PUSH1 0xE0 SHL DUP2 MSTORE PUSH1 0x4 ADD PUSH1 0x40 MLOAD DUP1 SWAP2 SUB SWAP1 REVERT JUMPDEST PUSH1 0x2 PUSH1 0x0 SSTORE JUMP JUMPDEST PUSH1 0x40 MLOAD DUP1 PUSH2 0x140 ADD PUSH1 0x40 MSTORE DUP1 PUSH1 0x0 PUSH1 0x1 PUSH1 0x1 PUSH1 0xA0 SHL SUB AND DUP2 MSTORE PUSH1 0x20 ADD PUSH1 0x60 DUP2 MSTORE PUSH1 0x20 ADD PUSH1 0x60 DUP2 MSTORE PUSH1 0x20 ADD PUSH1 0x0 DUP2 MSTORE PUSH1 0x20 ADD PUSH1 0x0 DUP2 MSTORE PUSH1 0x20 ADD PUSH1 0x0 DUP2 MSTORE PUSH1 0x20 ADD PUSH1 0x0 PUSH1 0x2 DUP2 GT ISZERO PUSH2 0x1B76 JUMPI PUSH2 0x1B76 PUSH2 0x1C30 JUMP JUMPDEST DUP2 MSTORE PUSH1 0x20 ADD PUSH1 0x0 DUP2 MSTORE PUSH1 0x20 ADD PUSH1 0x0 DUP2 MSTORE PUSH1 0x20 ADD PUSH1 0x0 DUP2 MSTORE POP SWAP1 JUMP JUMPDEST PUSH1 0x40 MLOAD DUP1 PUSH1 0xA0 ADD PUSH1 0x40 MSTORE DUP1 PUSH1 0x60 DUP2 MSTORE PUSH1 0x20 ADD PUSH1 0x0 DUP2 MSTORE PUSH1 0x20 ADD PUSH1 0x60 DUP2 MSTORE PUSH1 0x20 ADD PUSH1 0x0 PUSH1 0x3 DUP2 GT ISZERO PUSH2 0x1BC4 JUMPI PUSH2 0x1BC4 PUSH2 0x1C30 JUMP JUMPDEST DUP2 MSTORE PUSH1 0x0 PUSH1 0x20 SWAP1 SWAP2 ADD MSTORE SWAP1 JUMP JUMPDEST PUSH1 0x0 PUSH1 0x20 DUP3 DUP5 SUB SLT ISZERO PUSH2 0x1BE3 JUMPI PUSH1 0x0 DUP1 REVERT JUMPDEST POP CALLDATALOAD SWAP2 SWAP1 POP JUMP JUMPDEST PUSH1 0x0 DUP2 MLOAD DUP1 DUP5 MSTORE PUSH1 0x0 JUMPDEST DUP2 DUP2 LT ISZERO PUSH2 0x1C10 JUMPI PUSH1 0x20 DUP2 DUP6 ADD DUP2 ADD MLOAD DUP7 DUP4 ADD DUP3 ADD MSTORE ADD PUSH2 0x1BF4 JUMP JUMPDEST POP PUSH1 0x0 PUSH1 0x20 DUP3 DUP7 ADD ADD MSTORE PUSH1 0x20 PUSH1 0x1F NOT PUSH1 0x1F DUP4 ADD AND DUP6 ADD ADD SWAP2 POP POP SWAP3 SWAP2 POP POP JUMP JUMPDEST PUSH4 0x4E487B71 PUSH1 0xE0 SHL PUSH1 0x0 MSTORE PUSH1 0x21 PUSH1 0x4 MSTORE PUSH1 0x24 PUSH1 0x0 REVERT JUMPDEST PUSH1 0x3 DUP2 LT PUSH2 0x1C56 JUMPI PUSH2 0x1C56 PUSH2 0x1C30 JUMP JUMPDEST SWAP1 MSTORE JUMP JUMPDEST PUSH1 0x1 PUSH1 0x1 PUSH1 0xA0 SHL SUB DUP12 AND DUP2 MSTORE PUSH2 0x140 PUSH1 0x20 DUP3 ADD DUP2 SWAP1 MSTORE PUSH1 0x0 SWAP1 PUSH2 0x1C7F DUP4 DUP3 ADD DUP14 PUSH2 0x1BEA JUMP JUMPDEST SWAP1 POP DUP3 DUP2 SUB PUSH1 0x40 DUP5 ADD MSTORE PUSH2 0x1C93 DUP2 DUP13 PUSH2 0x1BEA JUMP JUMPDEST SWAP2 POP POP DUP9 PUSH1 0x60 DUP4 ADD MSTORE DUP8 PUSH1 0x80 DUP4 ADD MSTORE DUP7 PUSH1 0xA0 DUP4 ADD MSTORE PUSH2 0x1CB5 PUSH1 0xC0 DUP4 ADD DUP8 PUSH2 0x1C46 JUMP JUMPDEST DUP5 PUSH1 0xE0 DUP4 ADD MSTORE DUP4 PUSH2 0x100 DUP4 ADD MSTORE DUP3 PUSH2 0x120 DUP4 ADD MSTORE SWAP12 SWAP11 POP POP POP POP POP POP POP POP POP POP POP JUMP JUMPDEST PUSH1 0x0 DUP1 DUP4 PUSH1 0x1F DUP5 ADD SLT PUSH2 0x1CEA JUMPI PUSH1 0x0 DUP1 REVERT JUMPDEST POP DUP2 CALLDATALOAD PUSH8 0xFFFFFFFFFFFFFFFF DUP2 GT ISZERO PUSH2 0x1D02 JUMPI PUSH1 0x0 DUP1 REVERT JUMPDEST PUSH1 0x20 DUP4 ADD SWAP2 POP DUP4 PUSH1 0x20 DUP3 DUP6 ADD ADD GT ISZERO PUSH2 0x1D1A JUMPI PUSH1 0x0 DUP1 REVERT JUMPDEST SWAP3 POP SWAP3 SWAP1 POP JUMP JUMPDEST PUSH1 0x0 DUP1 DUP4 PUSH1 0x1F DUP5 ADD SLT PUSH2 0x1D33 JUMPI PUSH1 0x0 DUP1 REVERT JUMPDEST POP DUP2 CALLDATALOAD PUSH8 0xFFFFFFFFFFFFFFFF DUP2 GT ISZERO PUSH2 0x1D4B JUMPI PUSH1 0x0 DUP1 REVERT JUMPDEST PUSH1 0x20 DUP4 ADD SWAP2 POP DUP4 PUSH1 0x20 DUP3 PUSH1 0x5 SHL DUP6 ADD ADD GT ISZERO PUSH2 0x1D1A JUMPI PUSH1 0x0 DUP1 REVERT JUMPDEST PUSH1 0x0 DUP1 PUSH1 0x0 DUP1 PUSH1 0x0 DUP1 PUSH1 0x0 DUP1 PUSH1 0x0 PUSH1 0xA0 DUP11 DUP13 SUB SLT ISZERO PUSH2 0x1D84 JUMPI PUSH1 0x0 DUP1 REVERT JUMPDEST DUP10 CALLDATALOAD PUSH8 0xFFFFFFFFFFFFFFFF DUP1 DUP3 GT ISZERO PUSH2 0x1D9C JUMPI PUSH1 0x0 DUP1 REVERT JUMPDEST PUSH2 0x1DA8 DUP14 DUP4 DUP15 ADD PUSH2 0x1CD8 JUMP JUMPDEST SWAP1 SWAP12 POP SWAP10 POP PUSH1 0x20 DUP13 ADD CALLDATALOAD SWAP2 POP DUP1 DUP3 GT ISZERO PUSH2 0x1DC1 JUMPI PUSH1 0x0 DUP1 REVERT JUMPDEST PUSH2 0x1DCD DUP14 DUP4 DUP15 ADD PUSH2 0x1CD8 JUMP JUMPDEST SWAP1 SWAP10 POP SWAP8 POP PUSH1 0x40 DUP13 ADD CALLDATALOAD SWAP7 POP PUSH1 0x60 DUP13 ADD CALLDATALOAD SWAP2 POP DUP1 DUP3 GT ISZERO PUSH2 0x1DED JUMPI PUSH1 0x0 DUP1 REVERT JUMPDEST PUSH2 0x1DF9 DUP14 DUP4 DUP15 ADD PUSH2 0x1D21 JUMP JUMPDEST SWAP1 SWAP7 POP SWAP5 POP PUSH1 0x80 DUP13 ADD CALLDATALOAD SWAP2 POP DUP1 DUP3 GT ISZERO PUSH2 0x1E12 JUMPI PUSH1 0x0 DUP1 REVERT JUMPDEST POP PUSH2 0x1E1F DUP13 DUP3 DUP14 ADD PUSH2 0x1D21 JUMP JUMPDEST SWAP2 POP DUP1 SWAP4 POP POP DUP1 SWAP2 POP POP SWAP3 SWAP6 SWAP9 POP SWAP3 SWAP6 SWAP9 POP SWAP3 SWAP6 SWAP9 JUMP JUMPDEST PUSH1 0x0 DUP1 PUSH1 0x40 DUP4 DUP6 SUB SLT ISZERO PUSH2 0x1E49 JUMPI PUSH1 0x0 DUP1 REVERT JUMPDEST POP POP DUP1 CALLDATALOAD SWAP3 PUSH1 0x20 SWAP1 SWAP2 ADD CALLDATALOAD SWAP2 POP JUMP JUMPDEST PUSH1 0x4 DUP2 LT PUSH2 0x1C56 JUMPI PUSH2 0x1C56 PUSH2 0x1C30 JUMP JUMPDEST PUSH1 0xA0 DUP2 MSTORE PUSH1 0x0 PUSH2 0x1E7B PUSH1 0xA0 DUP4 ADD DUP9 PUSH2 0x1BEA JUMP JUMPDEST DUP7 PUSH1 0x20 DUP5 ADD MSTORE DUP3 DUP2 SUB PUSH1 0x40 DUP5 ADD MSTORE PUSH2 0x1E93 DUP2 DUP8 PUSH2 0x1BEA JUMP JUMPDEST SWAP2 POP POP PUSH2 0x1EA3 PUSH1 0x60 DUP4 ADD DUP6 PUSH2 0x1E58 JUMP JUMPDEST PUSH1 0xFF DUP4 AND PUSH1 0x80 DUP4 ADD MSTORE SWAP7 SWAP6 POP POP POP POP POP POP JUMP JUMPDEST DUP1 CALLDATALOAD PUSH1 0x1 PUSH1 0x1 PUSH1 0xA0 SHL SUB DUP2 AND DUP2 EQ PUSH2 0x1ECD JUMPI PUSH1 0x0 DUP1 REVERT JUMPDEST SWAP2 SWAP1 POP JUMP JUMPDEST PUSH1 0x0 DUP1 PUSH1 0x40 DUP4 DUP6 SUB SLT ISZERO PUSH2 0x1EE5 JUMPI PUSH1 0x0 DUP1 REVERT JUMPDEST DUP3 CALLDATALOAD SWAP2 POP PUSH2 0x1EF5 PUSH1 0x20 DUP5 ADD PUSH2 0x1EB6 JUMP JUMPDEST SWAP1 POP SWAP3 POP SWAP3 SWAP1 POP JUMP JUMPDEST PUSH1 0x0 DUP1 PUSH1 0x0 PUSH1 0x40 DUP5 DUP7 SUB SLT ISZERO PUSH2 0x1F13 JUMPI PUSH1 0x0 DUP1 REVERT JUMPDEST DUP4 CALLDATALOAD SWAP3 POP PUSH1 0x20 DUP5 ADD CALLDATALOAD PUSH8 0xFFFFFFFFFFFFFFFF DUP2 GT ISZERO PUSH2 0x1F31 JUMPI PUSH1 0x0 DUP1 REVERT JUMPDEST PUSH2 0x1F3D DUP7 DUP3 DUP8 ADD PUSH2 0x1CD8 JUMP JUMPDEST SWAP5 SWAP8 SWAP1 SWAP7 POP SWAP4 SWAP5 POP POP POP POP JUMP JUMPDEST PUSH1 0x0 PUSH1 0x20 DUP3 DUP5 SUB SLT ISZERO PUSH2 0x1F5C JUMPI PUSH1 0x0 DUP1 REVERT JUMPDEST PUSH2 0x1F65 DUP3 PUSH2 0x1EB6 JUMP JUMPDEST SWAP4 SWAP3 POP POP POP JUMP JUMPDEST PUSH1 0x20 DUP2 MSTORE PUSH2 0x1F86 PUSH1 0x20 DUP3 ADD DUP4 MLOAD PUSH1 0x1 PUSH1 0x1 PUSH1 0xA0 SHL SUB AND SWAP1 MSTORE JUMP JUMPDEST PUSH1 0x0 PUSH1 0x20 DUP4 ADD MLOAD PUSH2 0x140 DUP1 PUSH1 0x40 DUP6 ADD MSTORE PUSH2 0x1FA4 PUSH2 0x160 DUP6 ADD DUP4 PUSH2 0x1BEA JUMP JUMPDEST SWAP2 POP PUSH1 0x40 DUP6 ADD MLOAD PUSH1 0x1F NOT DUP6 DUP5 SUB ADD PUSH1 0x60 DUP7 ADD MSTORE PUSH2 0x1FC1 DUP4 DUP3 PUSH2 0x1BEA JUMP JUMPDEST SWAP3 POP POP PUSH1 0x60 DUP6 ADD MLOAD PUSH1 0x80 DUP6 ADD MSTORE PUSH1 0x80 DUP6 ADD MLOAD PUSH1 0xA0 DUP6 ADD MSTORE PUSH1 0xA0 DUP6 ADD MLOAD PUSH1 0xC0 DUP6 ADD MSTORE PUSH1 0xC0 DUP6 ADD MLOAD PUSH2 0x1FF4 PUSH1 0xE0 DUP7 ADD DUP3 PUSH2 0x1C46 JUMP JUMPDEST POP PUSH1 0xE0 DUP6 ADD MLOAD PUSH2 0x100 DUP6 DUP2 ADD SWAP2 SWAP1 SWAP2 MSTORE DUP6 ADD MLOAD PUSH2 0x120 DUP1 DUP7 ADD SWAP2 SWAP1 SWAP2 MSTORE SWAP1 SWAP5 ADD MLOAD SWAP4 SWAP1 SWAP3 ADD SWAP3 SWAP1 SWAP3 MSTORE SWAP2 SWAP1 POP JUMP JUMPDEST PUSH1 0x20 DUP2 MSTORE PUSH1 0x0 DUP3 MLOAD PUSH1 0xA0 PUSH1 0x20 DUP5 ADD MSTORE PUSH2 0x203E PUSH1 0xC0 DUP5 ADD DUP3 PUSH2 0x1BEA JUMP JUMPDEST SWAP1 POP PUSH1 0x20 DUP5 ADD MLOAD PUSH1 0x40 DUP5 ADD MSTORE PUSH1 0x40 DUP5 ADD MLOAD PUSH1 0x1F NOT DUP5 DUP4 SUB ADD PUSH1 0x60 DUP6 ADD MSTORE PUSH2 0x2065 DUP3 DUP3 PUSH2 0x1BEA JUMP JUMPDEST SWAP2 POP POP PUSH1 0x60 DUP5 ADD MLOAD PUSH2 0x207A PUSH1 0x80 DUP6 ADD DUP3 PUSH2 0x1E58 JUMP JUMPDEST POP PUSH1 0xFF PUSH1 0x80 DUP6 ADD MLOAD AND PUSH1 0xA0 DUP5 ADD MSTORE DUP1 SWAP2 POP POP SWAP3 SWAP2 POP POP JUMP JUMPDEST PUSH1 0x0 DUP1 PUSH1 0x0 DUP1 PUSH1 0x80 DUP6 DUP8 SUB SLT ISZERO PUSH2 0x20A8 JUMPI PUSH1 0x0 DUP1 REVERT JUMPDEST DUP5 CALLDATALOAD SWAP4 POP PUSH1 0x20 DUP6 ADD CALLDATALOAD SWAP3 POP PUSH1 0x40 DUP6 ADD CALLDATALOAD DUP1 ISZERO ISZERO DUP2 EQ PUSH2 0x20C6 JUMPI PUSH1 0x0 DUP1 REVERT JUMPDEST SWAP2 POP PUSH1 0x60 DUP6 ADD CALLDATALOAD PUSH1 0xFF DUP2 AND DUP2 EQ PUSH2 0x20DC JUMPI PUSH1 0x0 DUP1 REVERT JUMPDEST SWAP4 SWAP7 SWAP3 SWAP6 POP SWAP1 SWAP4 POP POP JUMP JUMPDEST PUSH1 0x1 DUP2 DUP2 SHR SWAP1 DUP3 AND DUP1 PUSH2 0x20FB JUMPI PUSH1 0x7F DUP3 AND SWAP2 POP JUMPDEST PUSH1 0x20 DUP3 LT DUP2 SUB PUSH2 0x102F JUMPI PUSH4 0x4E487B71 PUSH1 0xE0 SHL PUSH1 0x0 MSTORE PUSH1 0x22 PUSH1 0x4 MSTORE PUSH1 0x24 PUSH1 0x0 REVERT JUMPDEST PUSH4 0x4E487B71 PUSH1 0xE0 SHL PUSH1 0x0 MSTORE PUSH1 0x32 PUSH1 0x4 MSTORE PUSH1 0x24 PUSH1 0x0 REVERT JUMPDEST PUSH4 0x4E487B71 PUSH1 0xE0 SHL PUSH1 0x0 MSTORE PUSH1 0x11 PUSH1 0x4 MSTORE PUSH1 0x24 PUSH1 0x0 REVERT JUMPDEST DUP1 DUP3 ADD DUP1 DUP3 GT ISZERO PUSH2 0x1AF4 JUMPI PUSH2 0x1AF4 PUSH2 0x2131 JUMP JUMPDEST PUSH1 0x0 PUSH1 0x1 DUP3 ADD PUSH2 0x216C JUMPI PUSH2 0x216C PUSH2 0x2131 JUMP JUMPDEST POP PUSH1 0x1 ADD SWAP1 JUMP JUMPDEST PUSH4 0x4E487B71 PUSH1 0xE0 SHL PUSH1 0x0 MSTORE PUSH1 0x41 PUSH1 0x4 MSTORE PUSH1 0x24 PUSH1 0x0 REVERT JUMPDEST PUSH1 0x1F DUP3 GT ISZERO PUSH2 0x21D3 JUMPI PUSH1 0x0 DUP2 DUP2 MSTORE PUSH1 0x20 DUP2 KECCAK256 PUSH1 0x1F DUP6 ADD PUSH1 0x5 SHR DUP2 ADD PUSH1 0x20 DUP7 LT ISZERO PUSH2 0x21B0 JUMPI POP DUP1 JUMPDEST PUSH1 0x1F DUP6 ADD PUSH1 0x5 SHR DUP3 ADD SWAP2 POP JUMPDEST DUP2 DUP2 LT ISZERO PUSH2 0x21CF JUMPI DUP3 DUP2 SSTORE PUSH1 0x1 ADD PUSH2 0x21BC JUMP JUMPDEST POP POP POP JUMPDEST POP POP POP JUMP JUMPDEST DUP2 MLOAD PUSH8 0xFFFFFFFFFFFFFFFF DUP2 GT ISZERO PUSH2 0x21F2 JUMPI PUSH2 0x21F2 PUSH2 0x2173 JUMP JUMPDEST PUSH2 0x2206 DUP2 PUSH2 0x2200 DUP5 SLOAD PUSH2 0x20E7 JUMP JUMPDEST DUP5 PUSH2 0x2189 JUMP JUMPDEST PUSH1 0x20 DUP1 PUSH1 0x1F DUP4 GT PUSH1 0x1 DUP2 EQ PUSH2 0x223B JUMPI PUSH1 0x0 DUP5 ISZERO PUSH2 0x2223 JUMPI POP DUP6 DUP4 ADD MLOAD JUMPDEST PUSH1 0x0 NOT PUSH1 0x3 DUP7 SWAP1 SHL SHR NOT AND PUSH1 0x1 DUP6 SWAP1 SHL OR DUP6 SSTORE PUSH2 0x21CF JUMP JUMPDEST PUSH1 0x0 DUP6 DUP2 MSTORE PUSH1 0x20 DUP2 KECCAK256 PUSH1 0x1F NOT DUP7 AND SWAP2 JUMPDEST DUP3 DUP2 LT ISZERO PUSH2 0x226A JUMPI DUP9 DUP7 ADD MLOAD DUP3 SSTORE SWAP5 DUP5 ADD SWAP5 PUSH1 0x1 SWAP1 SWAP2 ADD SWAP1 DUP5 ADD PUSH2 0x224B JUMP JUMPDEST POP DUP6 DUP3 LT ISZERO PUSH2 0x2288 JUMPI DUP8 DUP6 ADD MLOAD PUSH1 0x0 NOT PUSH1 0x3 DUP9 SWAP1 SHL PUSH1 0xF8 AND SHR NOT AND DUP2 SSTORE JUMPDEST POP POP POP POP POP PUSH1 0x1 SWAP1 DUP2 SHL ADD SWAP1 SSTORE POP JUMP JUMPDEST DUP1 DUP3 MUL DUP2 ISZERO DUP3 DUP3 DIV DUP5 EQ OR PUSH2 0x1AF4 JUMPI PUSH2 0x1AF4 PUSH2 0x2131 JUMP JUMPDEST PUSH1 0x0 DUP3 PUSH2 0x22CC JUMPI PUSH4 0x4E487B71 PUSH1 0xE0 SHL PUSH1 0x0 MSTORE PUSH1 0x12 PUSH1 0x4 MSTORE PUSH1 0x24 PUSH1 0x0 REVERT JUMPDEST POP DIV SWAP1 JUMP JUMPDEST PUSH1 0x0 DUP1 DUP4 CALLDATALOAD PUSH1 0x1E NOT DUP5 CALLDATASIZE SUB ADD DUP2 SLT PUSH2 0x22E8 JUMPI PUSH1 0x0 DUP1 REVERT JUMPDEST DUP4 ADD DUP1 CALLDATALOAD SWAP2 POP PUSH8 0xFFFFFFFFFFFFFFFF DUP3 GT ISZERO PUSH2 0x2303 JUMPI PUSH1 0x0 DUP1 REVERT JUMPDEST PUSH1 0x20 ADD SWAP2 POP CALLDATASIZE DUP2 SWAP1 SUB DUP3 SGT ISZERO PUSH2 0x1D1A JUMPI PUSH1 0x0 DUP1 REVERT JUMPDEST DUP2 DUP4 MSTORE DUP2 DUP2 PUSH1 0x20 DUP6 ADD CALLDATACOPY POP PUSH1 0x0 DUP3 DUP3 ADD PUSH1 0x20 SWAP1 DUP2 ADD SWAP2 SWAP1 SWAP2 MSTORE PUSH1 0x1F SWAP1 SWAP2 ADD PUSH1 0x1F NOT AND SWAP1 SWAP2 ADD ADD SWAP1 JUMP JUMPDEST PUSH1 0x60 DUP2 MSTORE PUSH1 0x0 PUSH2 0x2355 PUSH1 0x60 DUP4 ADD DUP7 DUP9 PUSH2 0x2318 JUMP JUMPDEST PUSH1 0x20 DUP4 ADD SWAP5 SWAP1 SWAP5 MSTORE POP PUSH1 0x40 ADD MSTORE SWAP3 SWAP2 POP POP JUMP JUMPDEST PUSH1 0x20 DUP1 DUP3 MSTORE PUSH1 0x17 SWAP1 DUP3 ADD MSTORE PUSH32 0x43616D706169676E20646F6573206E6F74206578697374000000000000000000 PUSH1 0x40 DUP3 ADD MSTORE PUSH1 0x60 ADD SWAP1 JUMP JUMPDEST PUSH1 0x20 DUP1 DUP3 MSTORE PUSH1 0x13 SWAP1 DUP3 ADD MSTORE PUSH19 0x43616D706169676E206E6F7420616374697665 PUSH1 0x68 SHL PUSH1 0x40 DUP3 ADD MSTORE PUSH1 0x60 ADD SWAP1 JUMP JUMPDEST PUSH8 0xFFFFFFFFFFFFFFFF DUP4 GT ISZERO PUSH2 0x23E4 JUMPI PUSH2 0x23E4 PUSH2 0x2173 JUMP JUMPDEST PUSH2 0x23F8 DUP4 PUSH2 0x23F2 DUP4 SLOAD PUSH2 0x20E7 JUMP JUMPDEST DUP4 PUSH2 0x2189 JUMP JUMPDEST PUSH1 0x0 PUSH1 0x1F DUP5 GT PUSH1 0x1 DUP2 EQ PUSH2 0x242C JUMPI PUSH1 0x0 DUP6 ISZERO PUSH2 0x2414 JUMPI POP DUP4 DUP3 ADD CALLDATALOAD JUMPDEST PUSH1 0x0 NOT PUSH1 0x3 DUP8 SWAP1 SHL SHR NOT AND PUSH1 0x1 DUP7 SWAP1 SHL OR DUP4 SSTORE PUSH2 0x1932 JUMP JUMPDEST PUSH1 0x0 DUP4 DUP2 MSTORE PUSH1 0x20 SWAP1 KECCAK256 PUSH1 0x1F NOT DUP7 AND SWAP1 DUP4 JUMPDEST DUP3 DUP2 LT ISZERO PUSH2 0x245D JUMPI DUP7 DUP6 ADD CALLDATALOAD DUP3 SSTORE PUSH1 0x20 SWAP5 DUP6 ADD SWAP5 PUSH1 0x1 SWAP1 SWAP3 ADD SWAP2 ADD PUSH2 0x243D JUMP JUMPDEST POP DUP7 DUP3 LT ISZERO PUSH2 0x247A JUMPI PUSH1 0x0 NOT PUSH1 0xF8 DUP9 PUSH1 0x3 SHL AND SHR NOT DUP5 DUP8 ADD CALLDATALOAD AND DUP2 SSTORE JUMPDEST POP POP PUSH1 0x1 DUP6 PUSH1 0x1 SHL ADD DUP4 SSTORE POP POP POP POP POP JUMP JUMPDEST PUSH1 0x20 DUP2 MSTORE PUSH1 0x0 PUSH2 0x24A0 PUSH1 0x20 DUP4 ADD DUP5 DUP7 PUSH2 0x2318 JUMP JUMPDEST SWAP5 SWAP4 POP POP POP POP JUMP JUMPDEST DUP2 DUP2 SUB DUP2 DUP2 GT ISZERO PUSH2 0x1AF4 JUMPI PUSH2 0x1AF4 PUSH2 0x2131 JUMP INVALID LOG2 PUSH5 0x6970667358 0x22 SLT KECCAK256 0xE9 0x5D 0x2E EXTCODEHASH SWAP6 DUP3 GT DUP8 0xE8 PUSH30 0x7C2DEFC71558FB14AD00A3D67DA76427E921DB017EF864736F6C63430008 EQ STOP CALLER "},"methodIdentifiers":{"backers(uint256,uint256)":"8a18362c","campaignCounter()":"fca604d7","campaigns(uint256)":"141961bc","claimRefund(uint256)":"5b7baf64","contribute(uint256)":"c1cbbca7","contributions(uint256,address)":"3d891f59","createCampaign(string,string,uint256,string[],uint256[])":"1685b8eb","getBackerCount(uint256)":"70dc46e6","getCampaign(uint256)":"5598f8cc","getContractBalance()":"6f9fb98a","getContribution(uint256,address)":"e081dbf9","getMilestone(uint256,uint256)":"8ed9895c","milestones(uint256,uint256)":"1c376c63","setVerifier(address)":"5437988d","submitMilestone(uint256,string)":"476a119b","verifier()":"2b7ac3f3","verifyMilestone(uint256,uint256,bool,uint8)":"a5310ad7"}}}}}